:020000040800F2
:1000000010390020C5010008A53600080F3300088C
:10001000B13500087D1100087D5100080000000086
:10002000000000000000000000000000D93C0008B3
:100030008512000800000000FD370008BD430008DD
:10004000DF010008DF010008DF010008DF01000810
:10005000DF010008DF010008DF010008DF01000800
:10006000DF010008DF010008DF010008B11100080E
:10007000BD110008DF010008C9110008DF010008F8
:10008000DF010008DF010008DF0100088D11000812
:1000900081110008DF010008DF010008DF0100080E
:1000A000DF010008DF010008DF010008DF010008B0
:1000B00065440008DF010008DF010008DF010008D7
:1000C000DF010008DF010008DF010008DF01000890
:1000D000DF010008D94D0008DF010008DF0100083A
:1000E000DF010008DF010008DF010008DF01000870
:1000F000DF010008DF010008DF010008DF01000860
:10010000DF010008DF010008DF010008DF0100084F
:10011000DF010008DF010008DF010008DF0100083F
:10012000DF010008DF010008DF010008DF0100082F
:10013000DF010008DF010008DF010008A511000849
:1001400099110008DF010008DF010008DF01000845
:10015000DF010008D5110008DF010008254E000866
:10016000DF010008DF010008DF010008DF010008EF
:10017000DF010008DF010008DF01000800000000C7
:10018000DF010008DF01000899480008E94800087D
:10019000DF010008DF010008DF010008DF010008BF
:1001A0000000000000000000DF010008DFF810D0B0
:1001B00000F07CFD00480047C1620008AFF30080FA
:1001C000103900200648804706480047FEE7FEE752
:1001D000FEE7FEE7FEE7FEE7FEE7FEE7FEE7FEE7F7
:1001E00055440008AD0100082DE9F05F05460020E8
:1001F00092469B4688460646814640241BE0284698
:1002000041464746224600F0B4FB53465A46C01AC0
:10021000914110D311461846224600F09BFB2D1A3F
:1002200067EB01084F4622460120002100F092FBB7
:1002300017EB00094E41201EA4F10104DFDC484603
:1002400031462A464346BDE8F09FA0F141011929F5
:1002500000D82030704740EA01039B0703D009E033
:1002600008C9121F08C0042AFAD203E011F8013BA2
:1002700000F8013B521EF9D27047D2B201E000F8FB
:10028000012B491EFBD270470022F6E710B513463A
:100290000A4604461946FFF7F0FF204610BD421CEF
:1002A00010F8011B0029FBD1801A704710B50022FD
:1002B00000E0521C835C8C5CA34201D1002BF8D17E
:1002C000D8B2E1B2401A10BD034611F8012B00F874
:1002D000012B002AF9D11846704730B50546002099
:1002E000034600E05B1C934205D2EC5CC85C201A1C
:1002F00001D1002CF6D130BD2DE9FF4F087883B035
:100300009946FF2805D0491C2D2804D00024002040
:1003100008E000200BE00124F9E700EB800003EB8C
:100320004000491C0B78FF2BF7D104B14042002359
:100330000293147819461D462D2C01D02B2C04D184
:10034000521C2D2C13D000240294AA461478FF2CA2
:100350000FD00A25A3FB057801FB05814FF0000CA7
:1003600003FB0C11521CE3194AEB0101EEE70124D7
:10037000EAE7814453EA010002D019F5C87F06DAA2
:1003800003980021C0E9001107B0BDE8F08F0025F7
:10039000AE4E2F46DFF8B882184600F047FCCDE994
:1003A0000001B9F1000002DAC9F1000400E00446DE
:1003B0000023A74A1AEB030B42EB045A12E0E007B2
:1003C00007D02A4633463846414600F0ECF9074646
:1003D00088462A4633461046194600F0E4F9054699
:1003E0000E466410002CEAD1DDE90001B9F1000FDE
:1003F0005A46534606DA00F0AAFB3A46434600F056
:10040000A6FB05E000F0CFF93A46434600F0CBF9F1
:10041000029A0AB181F00041039AC2E90001B3E7F0
:100420002DE9FF4F1F468DB0D7E901464FF0FF3849
:100430002E2045464FF000090B90B9696D1C0E98AF
:100440008847396A824688470028F6D1BAF1FF3FCB
:100450000AD024F4D064002E11DDBAF12B0F08D09D
:10046000BAF12D0F0BD102E0404611B08DE744F4F4
:100470008064B9696D1C0E9888478246761E69466D
:10048000600501D52D2000E02B208DF8000001F142
:10049000010B0DF1200809E0B9696D1C0E98884721
:1004A00082460F9844F40074761E0560002E02DD2B
:1004B000BAF1300FF0D00B998A453ED144F0800458
:1004C00006E00F99681CA9F1010944F40074086062
:1004D000B9696D1C761E0E98884782463028F0D088
:1004E0002BE00B998A4505D1200603D444F0800403
:1004F000761E18E0504605F021F808B30DF11301FF
:10050000761E44F400748B4508D2AAF130000BF833
:10051000010B200607D5A9F1010003E0200602D453
:1005200009F101008146A00502D50F99681C0860F9
:10053000B9696D1C0E9888478246002ED1DC53E0C5
:10054000002E51DDBAF1650F02D0BAF1450F4BD143
:10055000A00549D5B9696D1C24F44074761E0E9827
:1005600088478246002E0CDD2B2804D0BAF12D0FCF
:1005700007D144F48074B9696D1C0E98884782468F
:10058000761EE00501D52D2100E02B2108F8011B86
:10059000CDF82C8021E00DF12901761E44F4007481
:1005A00088450CD2AAF1300010F0FF0088F8000056
:1005B00002D10B99884509D908F1010806E0E00548
:1005C00001D5244801E042F20F708146B9696D1CE3
:1005D0000E98884782460F980560002E04DD50462D
:1005E00004F0ACFF0028D6D1F9690E988847FF20A7
:1005F0008BF8000088F800000020069007904B461A
:100600006A4608A906A8FFF777FEA00502D46FF096
:1006100001002AE714F0240F0AD0E00714D1DDE925
:1006200006123868031D3B600068C0E900120BE049
:10063000DDE9060100F01EFB0146E00704D1386841
:10064000021D3A600068016028460EE70000144071
:100650000000F03FF1D8FFFF2DE9FE4F804681EA10
:100660000300C00F0C46009021F0004123F000452C
:10067000B8EB0200A94105D24046214690461C46EF
:100680000B46024623F00040104347D0270DC7F326
:100690000A00C3F30A510290401A019040286BDA15
:1006A000C3F3130040F4801B0098924620B100234E
:1006B000D2EB030A63EB0B0B01985946C0F14002E1
:1006C000504600F047F906460D4650465946019AF5
:1006D00000F05FF910EB08006141002487EA115235
:1006E00084EAE7731A4340D0009A62B3019A012A60
:1006F0004FEA075215DC001B61EB02014FF000428C
:1007000002EA0752CDE90042001C41F58011324651
:100710002B4600F0CEF903B0BDE8F08F40462146ED
:10072000F9E7001B61EB0201001C41F58013001882
:100730005B412018A2F5001747EB030140EAD57092
:10074000B6196D4111E06D084FEA360645EAC075ED
:100750004FEA0752001B61EB0201001C41F58011BA
:1007600049084FEA30000019514132462B4603B088
:10077000BDE8F04F00F08EB9009801224000002340
:10078000D0EB020263EBE073009821464FEAE0747D
:10079000B8EB000061EB0401E9E783F000435BE79D
:1007A00081F0004158E72DE9FE4F81EA030404F08F
:1007B000004421F0004100944FF0000B23F000436F
:1007C00050EA01045ED052EA03045BD0C3F30A543A
:1007D000C1F30A552C44A4F2F3340194A0FB025453
:1007E000C1F3130141F48011C3F3130343F48013E5
:1007F00001FB024400FB034E840A970A44EA815439
:1008000047EA8357A4FB076802958D0A05FB078515
:100810004FEA932C04FB0C542705029D4FEA06581F
:1008200047EA1637B5EB08056EEB070C870E920EFC
:1008300047EA811742EA8312A7FB0201B6EB0B01DC
:1008400064EB00042B0D43EA0C335E1844EB1C50A0
:10085000DA465146E7FB0201C5F313044FEA0B33B6
:1008600043EA14534FEA0432019C43EA0603A4F11D
:100870000C040294009CCDE900B400F01AF903B016
:10088000BDE8F08F00200146F9E770B5C1F30A52C8
:1008900001F000450024C1F3130140F2FF3341F49D
:1008A00080119A4201DA002070BD40F233439A422F
:1008B000A2F2334203DC524200F05BF800E09040C9
:1008C0002C43F1D0404270BD30B5041E71F10004DC
:1008D00004DB4FF00044404264EB0101141E73F14D
:1008E000000405DB1C464FF00043524263EB040357
:1008F0008B4208BF824230BD30B5041E71F1000446
:1009000004DB4FF00044404264EB0101141E73F11C
:10091000000405DB1C464FF00043524263EB040326
:10092000994208BF904230BD30B50B4601460020C9
:100930002022012409E021FA02F59D4205D303FAA1
:1009400002F5491B04FA02F52844151EA2F1010222
:10095000F1DC30BD202A04DB203A00FA02F100204D
:1009600070479140C2F1200320FA03F319439040ED
:100970007047202A04DB203A21FA02F00021704758
:1009800021FA02F3D040C2F12002914008431946F7
:100990007047202A06DBCB17203A41FA02F043EADF
:1009A000E07306E041FA02F3D040C2F12002914028
:1009B000084319467047426842B1016811F8013B8B
:1009C00023B1521EC0E90012184670470121C160D0
:1009D000881E704742685AB1C368016843B983688A
:1009E0008B4205D0491E521CC0E9001200207047FE
:1009F0004FF0FF30704700000FB4002300B589B0FE
:100A00000CA900910B996FF00042CB601E4B06932E
:100A10001E4B07930423CDE901321D4A089202467A
:100A20006B460020FFF7FCFC09B05DF814FB70B5C5
:100A300086B006464FF0FF300091CDE9010100205D
:100A400015460C4604903246694604A8FFF7D4FFC9
:100A500002460498211825B108B1084600E0204656
:100A60002860049800280DD0002A02DD00988842F2
:100A700008D0081B0094CDE901043246694604A859
:100A8000FFF7BAFF06B070BDB7090008D509000826
:100A9000D10C000810B5141E73F1000408DA401CD4
:100AA00041F1000192185B411A4301D120F001008D
:100AB00010BD2DE9F04D92469B4611B1B1FA81F27D
:100AC00002E0B0FA80F220329046FFF743FF04467E
:100AD0000F4640EA0A0041EA0B0153465A460843D2
:100AE00013D0114653EA010019D0C8F14002504614
:100AF000FFF73FFF05460E46504659464246FFF770
:100B000029FF084305D0012004E020463946BDE80E
:100B1000F08D0020054346EAE0762C4337430A98DF
:100B20006305E40AA0EB08000022FD0A44EA4754EA
:100B30000A3002D500200146E9E701051019694194
:100B4000DDE9084500196941BDE8F04DA2E72DE94E
:100B5000F04D81EA030404F0004B21F000451446F7
:100B60004FF0000A23F0004150EA050220D054EA79
:100B700001021DD0C5F30A570246C5F31303C1F3A2
:100B80001300C1F30A5640F4801543F48013A7EB19
:100B90000608101BD64608F2FD3873EB050002D399
:100BA00008F1010801E092185B41B8F1000F03DA87
:100BB00000200146BDE8F08D00204FF4801106466C
:100BC00084460EE0171B73EB050705D3121B63EB7E
:100BD000050306434CEA010C49084FEA300092181D
:100BE0005B4150EA0107EDD152EA030012D082EADC
:100BF000040083EA0501084305D0101BAB4106D26F
:100C00000122002306E000224FF0004302E06FF0D3
:100C1000010253101AEB06004CEB085110EB0A00CE
:100C200041EB0B01BDE8F04DFFF734BF0EB540F2CC
:100C3000334202920022CDE900221346FFF739FF2A
:100C400003B000BDC1F30A52C1F3130140F2FF33F8
:100C500041F480119A4202DA00200146704740F2C6
:100C600033439A42A2F2334202DC5242FFF781BE82
:100C7000FFF770BE01F0004330B421F0004150EAAC
:100C8000010206D00A0DA2F56072C1F31301002A19
:100C900002DC30BC00207047440F44EAC104C100AC
:100CA000E01830BC00EBC25000F017B8064C074DFE
:100CB00006E0E06840F0010394E80700984710342C
:100CC000AC42F6D3FFF776FA5C7300087C73000839
:100CD000C0B24FF4F05100F037B80029A8BF7047F8
:100CE000401C490008BF20F00100704710B4B0FA62
:100CF00080FC00FA0CF050EA010404BF10BC7047FD
:100D000049B1CCF1200421FA04F411FA0CF118BF16
:100D1000012121430843A3EB0C01CB1D4FEA0061E5
:100D20004FEA102042BF002010BC704700EBC350B8
:100D300010440029A4BF10BC7047401C490008BFE4
:100D400020F0010010BC70477F2801D9002208E084
:100D5000064A02EB5002C007127800D1120902F0D5
:100D60000F0201209040084070470000D272000836
:100D700010B50E4801F0F7FF0C4C202084F83E001F
:100D8000204602F0F3F94FF4806204F582712046A8
:100D900002F0EDF904F1A401012081F8350020688A
:100DA000C16841F01001C16010BD00005C0300206B
:100DB0002DE9F043434887B00024016841F0400129
:100DC0000160016801F0400105913E4914310A6853
:100DD00042F020020A60096801F0200105910168D3
:100DE00041F4800101600068142100F48000059046
:100DF0006846FFF749FA4FF4844000900220CDE99D
:100E00000104032003900820049069462E4801F055
:100E1000C9F92F4D2D4828604FF41650C5E901043B
:100E20000C20EC60C5E90440AC612846EC6102F09E
:100E30006BF905F1440627484FF02068E6E8020800
:100E40004020070191C64FF4003946F8144905F1D6
:100E50004400B461C6E90749746201F001F96E63A8
:100E60001C48B56305F1A40678383060C6E90184F2
:100E7000C6E903477461B461C6E907493046746244
:100E800001F0EEF8AE63002211464720B56301F091
:100E90001BFB472001F00AFB00220121452001F045
:100EA00013FB452001F002FB3A4605F58271284606
:100EB00002F05DF92868C16841F01001C16007B017
:100EC000BDE8F083303802400018024000140140B1
:100ED0005C030020A06402402DE9F043434887B042
:100EE0000024016841F010010160016801F0100167
:100EF00005913E4910310A6842F000420A600968D3
:100F000001F000410591016841F4001101600068A1
:100F1000142100F4001005906846FFF7B5F903208E
:100F200002218DE8130003900820049069463048A0
:100F300001F038F9304D2F4828604FF41640C5E9CC
:100F400001040C20EC60C5E90440AC612846EC616A
:100F500002F0DAF805F1440628484FF02067E6E889
:100F6000020740204FF48068A6E811014FF40039D1
:100F700046F8144905F14400B461C6E907497462B2
:100F800001F06EF86E631D48B56305F1A40690305C
:100F90003060C6E90174C6E903487461B461C6E90A
:100FA00007493046746201F05BF8AE6300221146D7
:100FB0005320B56301F088FA532001F077FA00223C
:100FC00001210B2001F080FA0B2001F06FFA4FF4A1
:100FD000807205F58271284602F0C9F82868C16858
:100FE00041F01001C16007B0BDE8F0833038024025
:100FF00000100240007C0040600C002010600240A5
:1010000010B5FFF7D5FEBDE8104000F0A9B800000C
:1010100005292DD30278012A2AD14278032A27D123
:10102000144A092902D38378042B09D007291FD336
:10103000817802291CD1017911720FA004F008B93E
:1010400030F8031FDFED100A49BA09B200EE101A9A
:101050004088B8EEC00A40BA80EE201A00EE100AAE
:10106000B8EE400A82ED001A80EE201A82ED011AD5
:10107000704700004018002052534F433A20256427
:101080002025250A000000000000C8421FB50BA162
:101090000128D1E90021CDE900210AA2D2E90012FC
:1010A000CDE9021207D0022804D106210DF1080073
:1010B00004F00CFE1FBD06216846F9E7010300138A
:1010C00000020000010300280001000010B5174CC9
:1010D000A06804F0F5FD2070012803D1FFF748FE59
:1010E0000120607005F00AF858B11048001D04F0A6
:1010F000F5FFA06028B1A18819B1FFF789FF04F0BE
:10110000B3FF6088401C80B26080B0F57A7F09D060
:10111000B0F5FA6F08D1002060800120BDE81040D2
:10112000FFF7B4BF0220F9E710BD0000D000002097
:101130000348007A552801D20120704700207047EB
:1011400040180020054890ED000AB5EEC00AF1EE07
:1011500010FA01DB01207047002070474018002082
:1011600005489FED040A642180ED010A80ED000A24
:10117000017270470000000040180020FEE70000E8
:10118000014800F088BB000010010020014800F079
:1011900082BB000010010020014800F07CBB000071
:1011A00038010020014800F076BB00003801002023
:1011B000014800F085BE0000A40C0020014800F0AA
:1011C0007FBE000008100020014800F079BE00003A
:1011D000A80F0020014800F073BE0000A00300200B
:1011E00001681823CAB2103AB2FBF3F2054B6FF351
:1011F0000901032A9B5CC36500D9091D8165084666
:1012000070470000B272000810B5014600208B69DB
:101210008A6A4FF0C07453B1B3F5005F15D072B154
:10122000012A0CD0022A0AD0032A09D104E01AB1FB
:10123000012A06D0022A03D1C96AC90100D50120BA
:1012400010BDC96AA142FAD010BD002AF7D0012A08
:10125000F2D0022AF3D0032AF3D010BD30B50468CF
:10126000256825F480252560046863608368402B29
:10127000036803D099600068C26030BD9A6000685E
:10128000C16030BD7047000010B502F069FE02F089
:1012900025FD02F029FB02F0BFFC02490020886115
:1012A00010BD00009000002010B502F059FE02F0C1
:1012B0001BFB02F0B1FC034900208861BDE810402F
:1012C00002F022BD9000002070B58AB002F096FBBB
:1012D0001C4C1D4D00262070697D012927D1032853
:1012E00004D00120E870012803D003E000F01EF9CB
:1012F000F8E76E722078032809D0134AA1781832D3
:101300001170207968B10020506060B10FE068462C
:1013100000F01EF90C48282269461830FEF79BFFA2
:1013200005E00120F0E7E07800F018F9A070A87D52
:1013300028B1A87A18B1012028730AB070BD2E73A5
:10134000FBE7000090000020D016002072B6FEE7F8
:101350003B4A092903D3B0F8070040BA01E04FF631
:10136000FF70D08080B2B0F5CC5F50D022DC41F667
:101370004202A0EB020190424FD010DCA0F5606069
:101380007F3842D0A0F58060E53844D0A0F5807069
:101390003B3832D0A0F500707E382CD143E00129D3
:1013A00045D00A2941D0B1F59B7F42D0B1F59C7F51
:1013B00021D134E044F6EE72811A904223D00FDC42
:1013C000A0F20940B0F5804019D0A0F51060663851
:1013D00017D00C2810D0A0F500707B380BD118E086
:1013E000B1F59F7F27D0B1F51A7F26D0A1F20C511D
:1013F000B1F5204F15D00020704701207047022022
:10140000704703207047042070470520704706206E
:1014100070470720704708207047092070470A204E
:1014200070470B2070470D2070470E2070470F202B
:10143000704710207047112070471220704700003D
:10144000E400002010B504462DED028BB0EE608A5A
:10145000F0EE408A00F09EF89FED050A2060C4ED92
:10146000038A28EE000A84ED020ABDEC028B10BD4F
:101470006F12833A70B50C46054600F08BF8606039
:101480002168DFED110A411A00EE101AB8EE400A89
:1014900060EE200AC4ED020A206094ED030A30EEEB
:1014A000201A80EE810AF7EE000A94ED041A70EE1D
:1014B000C00A20EE811A00EE905AF8EEE00A00EE23
:1014C000201A84ED041A70BD6F12833A02490A6A29
:1014D0000260496A416070479000002001488078AE
:1014E00070470000E40000200348007808B10020A5
:1014F0007047012070470000210000200148007A59
:10150000704700004018002018220149FEF7A3BED2
:10151000D016002010B54021034800F05DFF0128DF
:1015200000D0002010BD000000200240014880785B
:1015300070470000F800002010B58021034800F03B
:101540004BFF012800D0002010BD00000020024009
:1015500028220149FEF77FBEE41B00200C4A012827
:101560000AD010781222012800D01031B1FBF2F01D
:1015700002FB1010401C7047012902D0122902D032
:1015800003E0012000E0022050705078EAE70000FC
:101590009000002001480068704700000000002013
:1015A00090F82020012A07D0022A05D0416A41F490
:1015B0008021416201207047006842690A4342610C
:1015C00000207047F0B590F820500468A468012D01
:1015D00005D0022D03D0416A41F480215DE014F072
:1015E000406F01D1E50055D5C4F30164022C03D945
:1015F000416A41F4000150E00125A5401D608D685D
:101600004FF4C0739DB1CE6835434E6845EAC605B8
:10161000066803EB0417F5514FF4C275076805EB34
:1016200004150E697E51097D012905D009E00E8857
:10163000CD6845EA4655EBE701684E5946F4807699
:101640004E511179D579567941EA056195792D0484
:1016500045EA062529434FF4C676056806EB0416CD
:10166000A9511178D57841EA0561957852782D0411
:1016700045EA022211434FF4C475026805EB0415D4
:101680005151006803EB0411425842F001024250EC
:101690000020F0BD416A41F4001141620120F0BD1B
:1016A00010B590F82020012A07D0022A05D0416AFF
:1016B00041F480214162012010BD3B48D0F8002256
:1016C00042F00102C0F80022D0F8002222F47C523D
:1016D000C0F80022D0F800224B6A42EA0322C0F888
:1016E00000220A7D02F01F0301229A40D0F81C322A
:1016F0009343C0F81C32CB69B3B9D0F80C32934392
:10170000C0F80C328C894B6864F31F434C6900EBC2
:10171000C404C4F840320C890B6864F31F434C695D
:1017200000EBC404C4F84432CB69012B16D1D0F8C5
:101730000C321343C0F80C320C884B6864F31F431F
:101740004C6900EBC404C4F840320C89CB6864F3E4
:101750001F434C6900EBC404C4F844328B69002B6E
:10176000D0F804320ED01343C0F804320B69002BBA
:10177000D0F8143208D01343C0F81432096A012992
:1017800004D008E09343EFE79343F5E7D0F81C1249
:101790001143C0F81C12D0F8001221F00101C0F86A
:1017A0000012002010BD000000640040704730B5FA
:1017B00090F82040012C05D0022C03D0416A41F45E
:1017C00080215DE00468002955D02469A40754D025
:1017D0004FF4D874056804EB01142D5915F0040575
:1017E000956005682D594ED0ED08556005682C5957
:1017F00004F00204D4604FF4DA74056804EB0114B9
:101800002D5905F00F05156105682D59C5F30725FC
:10181000956105682C59240C54614FF4DC720468FE
:1018200002EB0112A4581C700468A458240A5C70CE
:101830000468A458240C9C700468A258120EDA7034
:101840004FF4DE72046802EB0112A4581C710468A4
:10185000A458240A5C710468A458240C9C71046880
:10186000A258120EDA71006881B1016941F02001BD
:101870000161002030BDE468A8E7416A41F400112D
:101880004162012030BD6D0D1560AFE7C16841F0C8
:101890002001C160EDE72DE9F05F054600680024F6
:1018A0004669D0F804908768D0F80CB0D0F810A042
:1018B000D0F81880F10748D0F90714D001218160D1
:1018C000B80703D5284600F066FA0CE0780702D581
:1018D0004FF4006407E0380702D54FF4805402E06B
:1018E000284600F057FAF80516D529684FF480709D
:1018F0008860B80503D5284600F04FFA0CE078055B
:1019000002D544F4005407E0380502D544F480447D
:1019100002E0284600F040FAF80316D529684FF493
:1019200080308860B80303D5284600F038FA0CE010
:10193000780302D544F4004407E0380302D544F4A8
:10194000803402E0284600F029FA300707D55FEA24
:10195000CB6004D52968102044F40074C860700777
:101960004FF0080707D55FEA0B7004D52868C760F9
:10197000284600F0B5F9B00706D52868C06880078A
:1019800002D0284600F0AEF9700607D55FEACA60BB
:1019900004D52968102044F480640861B00607D596
:1019A0005FEA0A7004D528680761284600F0C2F98A
:1019B000F00606D528680069800702D0284600F0A6
:1019C000BAF9B00308D55FEAC96005D529681020C7
:1019D0004860284600F0B0F9F00307D55FEA0970C7
:1019E00004D528684760284600F0DAF9300446D567
:1019F0005FEA497040D5F00504D55FEAC87001D0B0
:101A000044F00104B00504D55FEA887001D544F0C4
:101A10000204700504D55FEA487001D544F004045F
:101A2000300529D518F0700F26D008F07000402836
:101A300015D006DC102809D020280AD0302816D16D
:101A40000AE050280ED0602811D10EE044F00804BE
:101A50000DE044F010040AE044F0200407E044F0F4
:101A6000400404E044F0800401E044F480742868F9
:101A7000816921F070018161296804204860002C8F
:101A800005D0686A204368622846FFF78FFEBDE8EC
:101A9000F09F70B5040003D094F8200010B104E06A
:101AA000012070BD204600F081F82068016841F0F7
:101AB0000101016000F09AFC0546052604E000F0F3
:101AC00095FC401B0A2811D820684068C007F6D052
:101AD0002068016821F00201016000F087FC0546E2
:101AE0000BE000F083FC401B0A2806D9606A40F432
:101AF0000030606284F82060D2E720684068800788
:101B0000EFD4207E0128206801683DD021F08001BB
:101B10000160607E01282068016838D021F0400112
:101B20000160A07E01282068016833D021F02001E7
:101B30000160E07E0128206801682ED041F010018C
:101B40000160207F01282068016829D021F0080168
:101B50000160607F01282068016824D021F0040121
:101B60000160D4E902010843D4E904121143084397
:101B70006168491E08432168C86100206062012035
:101B800084F82000002070BD41F08001C0E741F0E2
:101B90004001C5E741F02001CAE721F01001CFE77D
:101BA00041F00801D4E741F00401D9E7F0B587B06E
:101BB000044614216846FEF767FB434B4348DFF8B1
:101BC00004E11968D4F800C0404A03250226092719
:101BD00010300024491CF4452DD11960012907D18A
:101BE000016841F000710160006800F0007005902C
:101BF000106840F0080010601068CDE9005600F051
:101C00000800CDE9047069463148CDE9024500F08D
:101C1000C9FA00221146132000F056FC132000F0F0
:101C200045FC00221146142000F04EFC142000F068
:101C30003DFC28483FE0DFF8A0E0F44540D1D0F873
:101C400000C04CF0806CC0F800C0D0F800C0012982
:101C50000CF0806CCDF814C0196007D1016841F018
:101C600000710160006800F000700590106840F09D
:101C700002001060106802AB00F0020005904FF403
:101C80004050CDE9000683E8B0006946134800F0F3
:101C900089FA002211463F2000F016FC3F2000F098
:101CA00005FC00221146402000F00EFC402000F010
:101CB000FDFB084828300068416941F480614161BA
:101CC00007B0F0BD0064004004000020303802403E
:101CD000000C024010010020006800400004024097
:101CE0007047000010B58AB0044607AB6A46002171
:101CF000FFF75DFD0B4A0C490C48944202D1009A53
:101D0000521E04E00A4A94420AD1009A921DD2B2AD
:101D10000A7002EB820100EB810007A901F049FC87
:101D20000AB010BD10010020180000206814002027
:101D300038010020704770477047000070B50446B6
:101D400090F82000012804D0606A40F4002060620E
:101D500018E0022084F820002068016821F00101C9
:101D6000016000F043FB05460EE000BF00F03EFBC3
:101D7000401B0A2808D9606A40F4003060620520E0
:101D800084F82000012070BD20684068C007EDD1B4
:101D9000606270BD7047704770477047704770470A
:101DA00070472DE9F0410446876D00F01FFB0646A1
:101DB00094F835000025022806D08020606584F85C
:101DC00034500120BDE8F0812068016821F016013F
:101DD00001602068416921F080014161206C08B9EF
:101DE000A06C20B12068016821F008010160206822
:101DF000016821F0010101600CE000F0F7FA801B9E
:101E0000052807D920206065032084F8350084F870
:101E10003450D7E720680068C007EED194F85C1012
:101E20003F208840B860012084F8350084F83450A1
:101E30000020C7E790F83510022903D080214165C2
:101E400001207047052180F835100068016821F0F5
:101E5000010101600020704770B504002BD094F898
:101E60003500022826D02068016821F001010160B8
:101E7000206800250560206845602068856020682E
:101E8000C560206805612168212048612046FFF770
:101E9000A7F9E56325646564A564E564256594F8A0
:101EA0005C203F2191408160656584F8355084F85D
:101EB0003450002070BD012070BD406D704700009F
:101EC0002DE9F84304464FF00009CDF8009063482F
:101ED0004FF41651A56D0068B0FBF1F72E6894F829
:101EE0005C10082000FA01F131420FD021680A6825
:101EF00052070BD50A6822F004020A6094F85C10BD
:101F00008840A860606D40F00100606594F85C1046
:101F10004FF0010808FA01F0304208D02168496901
:101F2000090604D5A860606D40F00200606594F871
:101F30005C1004208840304208D021680968890775
:101F400004D5A860606D40F00400606594F85C10F2
:101F500010208840304218D021680968090714D53C
:101F6000A86020680168490304D50068000308D50B
:101F7000A16C07E00168C90503D4016821F00801DC
:101F80000160216C09B12046884794F85C1020203C
:101F90008840304231D021680968C9062DD5A86033
:101FA00094F8350005282068016806D0490347D514
:101FB000006800031DD4616C1CE021F01601016073
:101FC0002068416921F080014161206C08B9A06C52
:101FD00020B12068016821F00801016094F85C10CC
:101FE0003F208840A86084F8358084F83490216DC3
:101FF0001FE0E16B09B120468847606D00282BD0B7
:10200000606DC00714D0052084F835002068016891
:1020100021F0010101600098401C0090B84203D8F3
:1020200020680068C007F6D184F8358084F83490C1
:10203000E16C002910D001B02046BDE8F04308470C
:102040000168C905D5D4016821F01001016084F848
:10205000358084F83490CCE7BDE8F8831400002084
:102060002DE9F041044600F0C1F906465CB10220BA
:1020700084F83500002584F834502068016821F088
:10208000010101600DE00120BDE8F08100F0AEF932
:10209000801B052805D920206065032084F83500C1
:1020A000F2E720680068C007F0D122681168204874
:1020B0000140D4E901031843D4E9033633431843FC
:1020C00063691843A3691843E3691843236A1843F3
:1020D0000843616A042903D1D4E90B131943084367
:1020E000106020684069666A20F0070130460E43A0
:1020F000012704280CD1A06A0643E06A40B12046BB
:10210000FFF782F820B14020606584F83570BAE7A7
:10211000206846612046FFF763F894F85C203F2171
:1021200091408160656584F835700020ACE700005F
:102130003F8010F02DE9F0410446866D90F83400A0
:10214000002501280DD0012084F8340094F8357062
:102150000020012F07D084F8340002252846BDE86E
:10216000F0810220FBE7022784F835706065204685
:10217000FFF774F894F85C103F208840B060206846
:10218000016841F016010160206C20B120680168EF
:1021900041F0080101602068016841F0010101601F
:1021A000DCE700002DE9F84FDFF8F8A10022012458
:1021B0000AF1040B03254FF00F090BF1040E00BFC9
:1021C0000B6804FA02F63340B34270D10F7907F07E
:1021D0000307012F01D0022F16D187684FEA42086A
:1021E00005FA08FC27EA0C07D1F80CC00CFA08FC29
:1021F0004CEA070CC0F808C04768B7430E79C6F32D
:10220000001696403E4346600E79F643B6070AD064
:10221000C7684FEA420C05FA0CF6B7438E6806FA17
:102220000CF63E43C6600E7906F00306022E10D16E
:10223000D60800EB8608D8F8206057074FEAD76C1D
:1022400009FA0CF7BE430F6907FA0CF73743C8F8D1
:10225000207006684FEA420C05FA0CF7BE430F796E
:1022600007F0030707FA0CF7374307604E6816F4C8
:10227000403F1CD04C4E376847F480473760366883
:1022800022F0030706F480460096484E07EB060C42
:10229000DCF8086897073F0F09FA07F826EA0806EE
:1022A000DFF80C81404503D14FF0000841E072E0B7
:1022B000DFF80081404502D14FF0010839E0DFF836
:1022C000F880404502D14FF0020832E0DFF8EC80A0
:1022D000404502D14FF003082BE0DFF8E480404591
:1022E00002D14FF0040824E0DFF8D880404502D145
:1022F0004FF005081DE0DFF8D080404502D14FF0D7
:10230000060816E0DFF8C480404502D14FF0070808
:102310000FE0DFF8BC80404502D14FF0080808E02C
:10232000DFF8B080404502D14FF0090801E04FF0DE
:102330000A0808FA07F848EA0608CCF80888DAF824
:1023400000605746D1F804C09E435FEACC3C00D5FC
:102350001E433E60DBF800605F46D1F804C09E4338
:102360005FEA8C3C00D51E433E60DEF80060774695
:10237000D1F804C09E435FEACC2C00D51E433E60DA
:10238000084F0C373E68D1F804C09E435FEA8C2C9E
:1023900000D51E433E60521C102AFFF411AFBDE869
:1023A000F88F0000003C01404438024000300140FA
:1023B000000002400004024000080240000C0240FD
:1023C000001002400014024000180240001C0240AD
:1023D00000200240002402400069084000D0012093
:1023E00070470AB1816170470904FBE701488068C2
:1023F00070470000080000200248816802781144FC
:1024000081607047080000200B4810B5016841F456
:1024100000710160016841F480610160016841F46C
:1024200080710160032000F06FF80F2000F006F8C3
:1024300000F024F8002010BD003C024070B50D4DA6
:1024400004464FF47A712878B1FBF0F00A49096824
:10245000B1FBF0F000F00CFB48B9102C07D20022C1
:102460002146501E00F030F800206C6070BD012045
:1024700070BD000008000020140000200A4808B5C4
:10248000016841F480410160006800F480400090E0
:102490000548001F016841F080510160006800F0AC
:1024A0008050009008BD000044380240002809DB3D
:1024B00000F01F02012191404009800000F1E0205E
:1024C000C0F8001170470000F0B40E4B1B680C46BA
:1024D000C3F30223C3F10705042D00D90425191DF8
:1024E000072901D2002300E0DB1E012606FA05F1D0
:1024F000491E214099409E40761E16403143F0BC53
:1025000002F0D0BE0CED00E0064900F007020868BA
:102510004FF6FF03184040EA0220034A10430860C8
:10252000704700000CED00E00000FA052DE9F047CF
:102530000E46050065D0DFF81481D8F80000F7B228
:1025400000F00F00B04207D288F80070D8F8000001
:1025500000F00F00B04254D128683D4C810712D5DD
:10256000400703D5206840F4E05020602878000739
:1025700003D5206840F4604020602068A96820F0FE
:10258000F000084320602878C0072DD030496868E3
:102590000839012812D0022813D0032811D0096865
:1025A000890700292DDA216821F003010143216008
:1025B000FFF71CFF814641F2883A0EE00968890363
:1025C000EFE709688901ECE7FFF710FFA0EB0901CD
:1025D000514502D90320BDE8F0872068696800F002
:1025E0000C00B0EB810FEFD1D8F80010404601F09D
:1025F0000F01B14207D90770006800F00F00B04228
:1026000001D00120E7E72878400705D52068E96870
:1026100020F4E050084320602878000706D52068A1
:10262000296920F4604040EAC100206000F038F8D9
:102630002168084AC1F30311515CC840064908608B
:1026400006480068FFF7FAFE0020C4E7003C02409D
:1026500008380240BA720008140000200C00002064
:102660000448054900680968044AC1F38221515CA5
:10267000C84070471400002008380240CA720008A1
:102680000448054900680968044AC1F34231515CB5
:10269000C84070471400002008380240CA72000881
:1026A000154810B5006810F00C02144813D01449F6
:1026B000042A0FD0082A0ED10F4C241F2268236849
:1026C00002F03F025B0207D52068C0F38810A0FB30
:1026D000010106E0084610BD2168C1F38811A1FB85
:1026E00000010023FDF780FD2168C1F30141491C71
:1026F0004900B0FBF1F010BD083802400024F4009E
:10270000001BB7002DE9F84F04006ED02078DFF8E9
:102710004C93C007A9F104054AD009F104000168EF
:10272000C1F38101012908D00068C0F381000228AB
:102730000AD1D9F80000400206D52868800337D5B1
:1027400060680028E1D033E06068B0F5803F10D0C9
:10275000B0F5A02F286810D020F4803028602868B9
:1027600020F4802028606068A8B1FFF73FFE06468D
:102770000DE0286840F48030F4E740F480202860C1
:10278000F7E700BFFFF732FE801B642873D8286884
:102790008003F7D50CE0FFF729FE064605E000BFF1
:1027A000FFF724FE801B6428F0D828688003F7D444
:1027B0002078DFF8AC8280074FF0000A3ED5A748AA
:1027C000001D016811F00C0F08D00068C0F38100F3
:1027D00002280BD1D9F80000400207D428688007EE
:1027E00016D5E068012800D112E033E1E068B8B105
:1027F0000120C8F80000FFF7F9FD064605E000BF1C
:10280000FFF7F4FD801B0228C0D828688007F7D5A1
:102810002868216920F0F80040EAC10028600DE036
:10282000C8F800A0FFF7E2FD064604E0FFF7DEFD72
:10283000801B02281FD828688007F7D4207800075B
:1028400022D5864F87486169703771B101210160D7
:10285000FFF7CCFD064604E0FFF7C8FD801B022809
:1028600009D838688007F7D50EE0C0F800A0FFF758
:10287000BDFD064605E082E0FFF7B8FD801B02289B
:102880007DD838688007F7D42078400768D5DFF80E
:10289000CCB100270BF13C0BDBF80000C0000BD4DF
:1028A000DBF8001041F08051CBF80010DBF800009D
:1028B000012700F0805000906B4E3068C00510D4A6
:1028C000306840F480703060FFF790FD009005E0C4
:1028D000FFF78CFD0099401A022850D83068C005D7
:1028E000F6D55E4EA0686C3601280FD005283068FA
:1028F00010D020F001003060306820F0040030601B
:10290000A068B8B1FFF772FD00900FE0306840F0AA
:102910000100F4E740F004003060F7E7FFF766FDE0
:102920000099411A41F28830814266D830688007A8
:10293000F4D50EE0FFF75AFD009007E0FFF756FDD3
:102940000099411A41F28830814256D83068800798
:10295000F4D42FB1DBF8001021F08051CBF8001037
:10296000A069C8B33D49091D0968C1F38101022965
:102970004AD00228504607D0C8F8600000E03CE08A
:10298000FFF734FD04463BE04746C8F86000FFF718
:102990002DFD064605E000BFFFF728FD801B02283D
:1029A0002BD828688001F7D4D4E907010843A16A2D
:1029B0002E4A490802EB0141626A41EA821108434A
:1029C00094F82C1040EA0161C9F800100120386623
:1029D000FFF70CFD044606E03EE000BFFFF706FDF2
:1029E000001B022809D828688001F7D534E000BF11
:1029F000FFF7FCFC001B022802D90320BDE8F88F7A
:102A000028688001F4D427E00128F7D0D9F8000025
:102A1000E26900F4800191421CD1226A00F03F017A
:102A2000914217D147F6C071626A0140B1EB821F33
:102A300010D1A26A4FF0FF3300F4403103EB520291
:102A4000B1EB024F06D194F82C1000F07060B0EB9F
:102A5000016F01D00120D1E70020CFE70438024008
:102A600000004742800E4742007000400000FFFF18
:102A700010B5401EB0F1807F01D3012010BD4FF092
:102A8000E02460610F21601702F00CFC0020A061BF
:102A900007202061002010BD10B5040003D094F879
:102AA0003D0010B107E0012010BD002084F83C007B
:102AB000204600F01EF8022084F83D00211D206809
:102AC00001F0E4FC012084F8460084F83E0084F81C
:102AD0003F0084F8400084F8410084F8420084F804
:102AE000430084F8440084F8450084F83D00002049
:102AF00010BD704790F83D10012901D001207047AA
:102B0000022180F83D100168CA6842F00102CA60E3
:102B100000681149884214D0B0F1804F11D00F499C
:102B200088420ED00E4988420BD00E49884208D008
:102B30000D49884205D00D49884202D00C4988428F
:102B400004D1816801F00701062903D0016841F032
:102B500001010160002070470000014000040040B6
:102B600000080040000C004000040140004001400B
:102B70000018004070B5044690F83C0000260D4651
:102B800001280FD0012084F83C006AB1042A1DD02E
:102B9000082A2FD00C2A3FD00126002084F83C00C0
:102BA000304670BD022070BD206801F0E1FC206855
:102BB000816941F0080181612068816921F0040187
:102BC0008161206881692A69114311E0206801F060
:102BD000FFFC2068816941F400618161206881699E
:102BE00021F480618161206881692A6941EA0221BA
:102BF0008161D2E7206801F021FD2068C16941F0C0
:102C00000801C1612068C16921F00401C161206827
:102C1000C1692A69114311E0206801F043FD206871
:102C2000C16941F40061C1612068C16921F480611A
:102C3000C1612068C1692A6941EA0221C161ACE72A
:102C400010B5040003D094F83D0010B107E0012056
:102C500010BD002084F83C00204600F01EF8022041
:102C600084F83D00211D206801F010FC012084F84B
:102C7000460084F83E0084F83F0084F8400084F861
:102C8000410084F8420084F8430084F8440084F84A
:102C9000450084F83D00002010BD704710B5044683
:102CA000022249B104290ED0082913D094F841001A
:102CB000012816D0012010BD94F83E000128F9D15A
:102CC00084F83E200FE094F83F000128F2D184F808
:102CD0003F2008E094F840000128EBD184F8402020
:102CE00001E084F841200122206801F033FC1649FC
:102CF0002068164A884201D0904203D1436C43F4C5
:102D0000004343642068884213D0B0F1804F10D054
:102D10000F4988420DD00F4988420AD00E49884297
:102D200007D0904205D00D49884202D00C49884214
:102D300004D1816801F00701062903D0016841F040
:102D400001010160002010BD0000014000040140AD
:102D50000004004000080040000C0040004001401A
:102D600000180040704770B5044620680C3050E8E9
:102D7000001F21F4907140E80012002AF5D120686C
:102D8000143050E8001F21F0010140E80012002A31
:102D9000F5D1206B012809D120680C3050E8001FC4
:102DA00021F0100140E80012002AF5D120684069A6
:102DB0004FF00005400615D52068143050E8001F7C
:102DC00021F0400140E80012002AF5D1A06B48B183
:102DD0000565A06BFEF7E5FF20B1A06BFFF76DF86E
:102DE000202806D0E585202084F83E0025630020B9
:102DF00070BD10202064032070BD10B5044600682B
:102E0000406994F83D10C0F3C010212911D180B160
:102E10002068143050E8001F21F0800140E80012C3
:102E2000002AF5D1606B08B1FEF7BBFF204601F028
:102E30005BFE2068406994F83E10C0F380102229A0
:102E400011D180B12068143050E8001F21F04001FA
:102E500040E80012002AF5D1A06B08B1FEF7A1FFEF
:102E6000204601F01AFE002010BD10B5040014D059
:102E7000242084F83D002068C16821F40051C1601D
:102E8000204600F072F90020206484F83D0084F8A8
:102E90003E0044F8300F207310BD012010BD704774
:102EA000F8B5016804460868CA684B6910F00F0F4E
:102EB0004FF0000559D003F0010602F49077374334
:102EC00065D0C10705D0D10503D5216C41F00101C2
:102ED0002164410705D5D90703D0216C41F00201D7
:102EE0002164810705D5D90703D0216C41F0040185
:102EF0002164010707D502F02001314303D0216C82
:102F000041F008012164216C00293AD0800604D5E3
:102F1000900602D5204601F0F5FD20684069216C3D
:102F2000C0F38010090700D460B3204601F0B5FD5E
:102F300020684069400621D52068143050E8001F01
:102F400021F0400140E80012002AF5D1A06BA8B1A1
:102F50006C490165A06BFEF76DFF002811D0A06BD6
:102F6000016D01B0BDE8F040084783060FD5930618
:102F70000DD52046BDE8F84001F0C4BD2046FFF75E
:102F80008EFFF8BD2046FFF78AFF2564F8BD266B4B
:102F90002023012E79D1C60677D5D60675D50868C7
:102FA000486800904869400640D5A16B08684068B1
:102FB0000004000CEAD0A28D8242E7D9E085C869FE
:102FC000B0F5807F2DD020680C3050E8001F21F430
:102FD000807140E80012002AF5D12068143050E8D2
:102FE000001F21F0010140E80012002AF5D12068FD
:102FF000143050E8001F21F0400140E80012002A80
:10300000F5D184F83E30256320680C3050E8001F6D
:1030100021F0100140E80012002AF5D1A06BFEF764
:10302000C0FEA08DE18D401A81B229E0A08DE18D16
:10303000401A81B2E08D0028A8D00029A6D02068CF
:103040000C3050E8002F22F4907240E80026002E49
:10305000F5D12068143050E8002F22F0010240E83A
:103060000026002EF5D184F83E30256320680C3010
:1030700050E8002F22F0100240E80023002BF5D189
:103080002046FFF76FFEF8BDFFE705062BD51506B6
:1030900029D594F83D002128F5D1A068B0F5805FCE
:1030A00001D12069B0B1206A411C216221680078F9
:1030B0004860E08C401E0004000CE084E3D12068EE
:1030C000C16821F08001C1602068C16841F0400101
:1030D000C160D8E7206A0088C0F308004860206A11
:1030E000801C2062E5E74006CDD55006CBD5CA68E6
:1030F000204622F04002CA6084F83D3000F0EEF82D
:10310000C1E700005949000870B5040004D094F8E4
:103110003D00002510B106E0012070BD84F83C5050
:10312000204600F023F8242084F83D002068C16880
:1031300021F40051C160204601F044FD206801697E
:1031400021F4904101612068416921F02A01416127
:103150002068C16841F40051C1602564202084F8D2
:103160003D0084F83E00002070BD7047704790F825
:103170003E30202B0ED159B152B190F83C30012B8A
:1031800008D0012380F83C300023036301F0A0BD88
:103190000120704702207047704770472DE9F843BF
:1031A000044690F83D001F4616460D4620284CD197
:1031B000C5B1BEB194F83C00012846D0012084F886
:1031C0003C004FF00008C4F84080212084F83D0006
:1031D000FFF70CF9A6848146E684A068B0F5805F0D
:1031E00003D004E00120BDE8F883206928B12E4611
:1031F0005FF0000584F83C800EE00026FAE78021AD
:10320000204601F0ADFDA0B9AEB116F8010B216862
:103210004860E08C401EE084E08C4B464FF000029A
:1032200000970028EBD14FF04001204601F098FDB7
:1032300030B10320D7E735F8020BC0F30800E6E70A
:10324000202084F83D000020CDE70220CBE70000DD
:1032500070B5044690F83D00202836D191B38AB36A
:1032600094F83C00012830D0012084F83C00216211
:10327000A284E28400252564212084F83D00636B4C
:103280001348D863636B13481864636B1248D8649F
:10329000606B134605652668606B321DFEF74AFFBA
:1032A00021686FF04000086084F83C5020681430BA
:1032B00050E8001F41F0800140E80012002AF5D1DB
:1032C000002070BDFFE70120FBE70220F9E70000C6
:1032D0004F4A0008914A00086949000800680849F7
:1032E000884201D103F06ABF0649884201D103F048
:1032F0006BBF0549884201D103F06CBF70470000E5
:1033000000780040007C0040001401407047FEE758
:103310002DE9F0412DED048B00F014F900F0EEF8EA
:1033200002F076FE00F08EF800F070F801F0B2FDC9
:1033300000F0A6FB00F064FA00F0BCF800F080F8A2
:1033400000F0FEFBFDF75CFE00F068FB00F038FDCE
:10335000FDF79AFF9FED288ADFED268AF7EE001A27
:10336000B0EE480AB0EE681AF0EE400A234801F0C9
:1033700031FF234C002104F11002D4ED092A94ED11
:10338000072AD4ED081A1F4892EC030A00F08BF9C3
:103390001A4E1C4F9FED1C9A012500BFC5EB05106E
:1033A00006EB8000F7EE001AB0EE681AF0EE480A5D
:1033B000B0EE490A01F00EFF221D05EB051092EC5C
:1033C000030A07EB8000D4ED092A94ED072AD4ED17
:1033D000081A002100F067F96D1C042DDEDB084897
:1033E00000212830C180818041800180BDEC048BA8
:1033F000BDE8F081000000000AD7233CC81500207A
:1034000058000020B81400209A99993E0A4800B547
:10341000026887B0002142F0020202600068029157
:1034200000F0020005900420CDE900016946034840
:10343000FEF7B8FE07B000BD30380240000402407D
:1034400002F02ABF30B5184887B00024016841F067
:1034500010010160016801F010010591016841F05F
:1034600020010160016801F020010591016841F02F
:10347000400101600068012500F0400005904FF414
:1034800000600090CDE90154694608480394FEF7B6
:1034900089FEA8030090CDE90154694604480394CD
:1034A000FEF780FE07B030BD303802400010024009
:1034B000001402400F4810B5026886B0002142F4A3
:1034C0008072026000680C4C00F48070059040200F
:1034D000CDE90001022002900320039069462046B6
:1034E000FEF760FE8020009069462046FEF75AFEF7
:1034F00006B010BD3038024000200240104810B520
:103500000E4901600321416000214FF400228160D7
:10351000C0E903124FF44012426101760122427663
:103520008176C17601774177FEF7B3FA002803D0A0
:10353000BDE81040FDF70ABF10BD00000064004068
:1035400010010020194808B5016841F0010101602F
:10355000016801F001010091016841F01001016072
:10356000016801F010010091016841F00201016061
:10357000016801F002010091016841F00801016059
:10358000016801F008010091016841F080010160CB
:10359000016801F080010091016841F020010160A3
:1035A000006800F02000009008BD000030380240A4
:1035B000FEE710B5B0F9083043810A8852BA12B25A
:1035C00002814C88D31A64BA04808C88B3F5805F7A
:1035D00064BA448089798171C16801DD491E03E0C4
:1035E00013F5805F01DA491CC16002EB41310161D2
:1035F00010BD002180F8001A80F8011A80F8021A24
:103600007047000070B5044690F8020A0D46E8B114
:103610000F480078D0B194F8000A0EA204EB002302
:103620004FF48071284601F023FE94F8000A0A2125
:10363000401CB0FBF1F201FB120084F8000A94F880
:10364000020A401E84F8020A012070BD002070BDED
:10365000F80000202573000010B5044690F8020A17
:103660000A2801D3002010BD94F8010A0B4604EB90
:1036700000200BA24FF4807101F0FAFD94F8010ACA
:103680000A21401CB0FBF1F201FB120084F8010A90
:1036900094F8020A401C84F8020A012010BD0000C0
:1036A00025730000FEE7002805D00170C0ED082A50
:1036B000001D80EC050A70479FED4E2AD8B1D0ED71
:1036C0000E1AC0ED0F1A90ED0D1A80ED0E1A80ED56
:1036D000060A30EEC00AC0ED070A80ED0D0A017837
:1036E000F9B101290AD002294CD080ED102A00BF7F
:1036F00090ED100A7047B0EE420A704710EE101AB3
:10370000DFED3D0AB1F18B4F02DD30EE600A06E0DD
:1037100010EE101A11F16A5F03D930EE200A80ED25
:103720000D0A90ED010AD0ED0D0A60EE201AC0EDF1
:10373000091A90ED0A0A90ED022A02EE200A70EEB4
:10374000C10A80ED0A0AC0ED0C0A90ED031A21EEC1
:10375000201A80ED0B1AD0ED040AB4EEE00AF1EE67
:1037600010FA06DCF1EE600AB4EEE00AF1EE10FAAF
:1037700001D2C0ED0A0A90ED0A0A31EE800A30EE5D
:10378000010A23E070EE410A90ED012AF0EE002AD2
:1037900060EE820AC0ED090A90ED022A22EE002AAC
:1037A00001EE620A80ED0A2A70EE820A30EE210AEA
:1037B00080ED0C0A90ED031A21EE000A80ED0B0A51
:1037C00030EE800AD0ED100A30EE200A80ED100AAB
:1037D000D0ED050AB4EEE00AF1EE10FA06DCF1EEE7
:1037E000600AB4EEE00AF1EE10FA81D2C0ED100AE0
:1037F0007EE700000000000000F8FF457047000071
:103800000C4800B5026887B0002142F48072026063
:10381000006800F4807005900420CDE900010120CB
:1038200002900220039069460348FEF7BBFC07B0F4
:1038300000BD0000303802400020024010B50421D5
:103840000248FEF7C9FD0249087010BD0020024081
:103850002100002010B5064C002204212046FEF76E
:10386000C0FD20460122BDE810400821FEF7B9BD89
:103870000000024010B5064C012204212046FEF74C
:10388000B0FD20460022BDE810400821FEF7A9BD8A
:103890000000024010B5064C002201212046FEF730
:1038A000A0FD20460122BDE810400221FEF799BD8F
:1038B0000000024010B50B4C002201212046FEF70B
:1038C00090FD002202212046FEF78BFD00220421FC
:1038D0002046FEF786FD20460022BDE81040082164
:1038E000FEF77FBD0000024010B5064C01221146D4
:1038F0002046FEF776FD20460022BDE8104002215A
:10390000FEF76FBD0000024030B587B00446684640
:10391000FDF7FAFD182269463248FCF79CFC314D50
:10392000B3EE040A183DB5F9040060B100EE900A48
:10393000F8EEE00A20EE800ABDEEC00A10EE100A92
:1039400000F000FB26E0B5F9020088B300EE900A13
:1039500025482449F8EEE00A20EE800A80ED000AAE
:103960008A79012A04D1B5EEC00AF1EE10FA07D324
:103970004979012908D1B5EEC00AF1EE10FA03DD4C
:103980009FED1A0A80ED000ABDEEC00A10EE100A83
:1039900000F0E0FAA87A01280FD0022820D1022CEA
:1039A00019D0032C1CD107B0BDE83040FFF79CBFF5
:1039B000002000F0C7FA0020EAE7022C06D0032C12
:1039C0000ED107B0BDE83040FFF764BF07B0BDE8D7
:1039D0003040FFF74FBF07B0BDE83040FFF73ABFB8
:1039E00007B030BD28170020CC00002000000000E8
:1039F00016220149FCF72FBC4C1800200248807A9F
:103A0000002800D1032070474C1800200248C07ADB
:103A1000002800D1012070474C18002002F09EB908
:103A200010B50E4802F0CCFB0C4CA41E606040B1F7
:103A3000618831B10A4900F0F7F802F01DFB00205F
:103A40000AE02088B0F5FA6F05D9BDE810401621CC
:103A50000348FCF719BC401C208010BDDE0000208C
:103A60004C18002000B587B06846FFF7C1FF16224A
:103A700069460248FCF7EFFB07B000BD10170020B5
:103A8000FDF72ABA10B50E48FFF76DF90C4C20204F
:103A900084F83E002046FFF769FB4FF4807204F57E
:103AA00082712046FFF763FB04F1A401012081F835
:103AB00035002068C16841F01001C16010BD0000F0
:103AC000600C00200421014800F002B8F000002042
:103AD000054A5378002B06D0002353708AB2014662
:103AE0000248FFF7B5BB704750000020600C002073
:103AF00010B5124C206902F05FFF2070012803D13D
:103B0000FFF7C0FF0120607002F07AFB60B10B4844
:103B1000001D02F065FB206130B1A18821B1FDF7E5
:103B200017FC608002F0B6FAA068401CA060C828AC
:103B300003D1FFF7C7FF0020A06010BDE400002004
:103B400030B5144887B0016841F008010160016890
:103B500001F008010591016841F0800101600068F1
:103B6000012500F0800005904FF4404000900224B1
:103B7000CDE90154694608480394FEF713FBE002BF
:103B80000090CDE90154694604480394FEF70AFB0E
:103B900007B030BD30380240000C0240001C02402B
:103BA0002DE9F0414FF40041194CCD10194E4F1042
:103BB000D8B1012824D0022811D0032826D1002210
:103BC0002046FEF70EFC012229463046FEF709FC8E
:103BD000012239462046BDE8F041FEF702BC012231
:103BE0002046FEF7FEFB002204E000222046FEF7FE
:103BF000F8FB012229463046FEF7F3FB0022E8E7F6
:103C000000222046FEF7EDFB0022DDE7BDE8F08153
:103C1000000C0240001C02400248002141718171E9
:103C20000172704790000020002854D0002952D023
:103C30000278437842EA0322C2F30A020A804278F9
:103C40008378D20842EA4312C2F30A024A80827899
:103C5000C378920942EA8302037942EA8322C2F3DB
:103C60000A028A8002794379520842EAC312C2F3F7
:103C70000A02CA804279C2F301128A724279920919
:103C8000CA728279C37942EA03228A81027A437A2C
:103C900042EA0322CA81827AC37A42EA03220A8272
:103CA000027B8A74427BCA74827BC37B42EA032212
:103CB0008A82027C407C42EA0020C0F30A0008812C
:103CC0005FF0000001EB4003401C1A880528A2F5B4
:103CD00080621A80F6DB70477047000009480021B7
:103CE000012201808170C170017141718171017285
:103CF00042728172C17201730261017542758275EF
:103D000070470000D0160020054800220121C27033
:103D10004172016102730175417581757047000040
:103D2000D016002070B501F051F91E4C1E48002538
:103D3000217911B10121C17127E0C179012924D074
:103D4000FFF7D6FEFDF7CAFB84F80400FFF776FD07
:103D500000F054F8FDF7BAF9FFF762FE2580FDF791
:103D6000C3FBA070207900B1E071FDF7D3FB607157
:103D7000FDF7E2FBA071FDF7DBF9A072FDF7E2F9B8
:103D8000E072FDF7BBFBE07570BD2571C18940F2A3
:103D9000DC52914202D2491CC181D7E7C581C5716D
:103DA000D4E70000D016002090000020002806D0A4
:103DB000002101704A1E426001720174C177704790
:103DC00010B500F0C1FC0448FFF7F0FF0248BDE861
:103DD00010402830FFF70DBCE41B0020054A537843
:103DE000002B06D0002353700A4601460248FFF715
:103DF0002FBA704754000020640F00202DE9F843CB
:103E00000025ADF80050684602F000FA8046FDF744
:103E10008FF92D4C4FF47A776070A07801280AD181
:103E2000A088401C80B2B0FBF7F1A08007FB110016
:103E300008B9A570A5802089BDF8002081188029C7
:103E400012D2224E41463044FCF705FA2089BDF8D3
:103E5000001008440004000C208112D0311811F821
:103E6000011C7D2905D00CE0258102F01BF9BDE87D
:103E7000F8833554154802F0E9FCA070258102F062
:103E800011F96089401C608102F0D0F920706189CD
:103E9000B1FBF7F207FB12110029E8D10028E6D0A8
:103EA0000A48A83090F8020A0028E0D0084901F535
:103EB000D470FFF7A7FB0648FCF7F1F981B204487C
:103EC000FFF78CFFD3E70000F8000020641B002000
:103ED000641A00200948418809B1022009E00088DD
:103EE00008B1002005E0054828388078012802D074
:103EF0000120FFF755BE0320FBE7000080000020F3
:103F0000F8B50E4CDDE9066521600021A160E16095
:103F1000082121610A49140A0C704A701A0A8A7031
:103F2000CB70320A0A714E712A0A8A71CD710A4623
:103F30006B460249FDF746FBF8BD0000600100201A
:103F400019000020024948804042888070470000E4
:103F5000B00000200149088070470000B000002038
:103F6000024800210170417070470000A600002047
:103F70002DE9F05FF34DDFF8D0A3A5F11608AAF103
:103F80001804D8E906026B7801270026617D401CE1
:103F9000521C4FF0040905F10A0B082B2BD2DFE865
:103FA00003F004F1F0EF4BCDEEED47F23052B0FBF1
:103FB000F2F3C8F8180002FB1300B0F57A7F05D1C0
:103FC000A07D012802D1E1A002F0FCFCE07D1E28CA
:103FD00002D2207B012810D0607A90B1207B01288A
:103FE00009D1B8F80C104EF66022404691421CD21E
:103FF000491CA8F80C10BDE8F09FC8F8186067725B
:1040000016E09AF8000002F017F950B1C8F81860ED
:1040100085F801902E706675A675314688F80460A3
:1040200064E16772617DCBA061E18681C8F81860A8
:1040300085F801902E7041E14EF66022B0FBF2F35C
:10404000C8F8180002FB1300B0F5FA7F0FD1207BEF
:10405000012805D0DAF8040020B1012804D009E0D5
:10406000BEA002E0C0A000E0C2A002F0ABFC207B3A
:10407000012812D09AF800002075E079217D88424D
:1040800007D002F041F801462061207D02F08EF851
:104090002072A078012802D00DE02775EDE7E079C5
:1040A000217D884207D10020FFF74CFFA8F814605B
:1040B000052068705FE0208800289CD128780528BA
:1040C00016D0AF48E179227A4342914202D098F863
:1040D0000520AAB188F80570B8F8142041F27C5583
:1040E000AA4221D9206901281CD04FF4FA6021E0AE
:1040F0002069012801D032201CE06FF0310019E066
:104100002269012A06D001290AD00A2908D041F2E1
:1041100088300FE009290DD012290BD0994809E009
:10412000184607E0984805E0521CA8F814202169B9
:104130000129F5D1BDE8F05FFFF704BFB8F8120020
:10414000B0F5FA6F32D9A8F81260A078012825D10D
:10415000E079217D884221D10020FFF7F3FE207B0A
:10416000012810D0062068706675314687A002F0DD
:1041700029FCC8F8186085F800903CE779E019E060
:1041800056E047E0B7E007206870617D7FA002F04D
:1041900019FCC8F81860A8F81060ECE720694042E4
:1041A00020610520287085F8019024E7401CA8F8BC
:1041B000120020E70020FFF7C5FE98F8060001284E
:1041C00008D0022068700620287041F65830ABF8FD
:1041D00000001CE0DAF8040010B1012803D004E06C
:1041E000FFF748FB01E0FFF735FBB8F80A00401C79
:1041F00080B2A8F80A00B0F5FA5FBED96548ABF8FE
:1042000000000320687006202870A8F80A60C8F82B
:104210001C60F0E6C8F81C2060790128ADD1ABF82D
:104220000060062068700220287088F80670E2E6B8
:10423000C8F81C20A07901289FD1ABF800606E70EF
:1042400003202870E07D1E2800D967756772A8F8E2
:104250000C60FFF7E1FCDAF8040038B101288CD1DA
:10426000A77588F80470617D4BA040E0617D4CA08B
:104270003DE0C8F8180042460020FFF763FE916950
:1042800047F23050B1FBF0F200FB1210642803D16A
:10429000617D45A002F096FBE07D562809D3FFF72B
:1042A00023FBE07A002884D16E70072028706775A0
:1042B000A1E6FFF7EFFAE07D232801D266759AE6C2
:1042C0006775607A0028A4D1FFF70EFBE07A00281A
:1042D0009FD1C8F8186085F801900721297066758C
:1042E000A67588F80460FFF797FC617D30A0BDE8F3
:1042F000F05F02F067BB0020FFF724FEABF8006020
:10430000D8F818002C49401CB0FBF1F2C8F818008E
:1043100001FB120040B90B4898F808201230617D6B
:1043200050F8220002F04EFB98F80800012801D155
:10433000208808B16F705EE688F808602878687099
:104340002F7058E6A6000020E8160020667265650A
:10435000000000004661696C000000006D6F76652A
:104360005F636861726765006D6F76655F70696332
:104370006B0000006D6F76655F706C6163650000B7
:1043800060F0FFFF78ECFFFF30F8FFFF61727269A9
:1043900076650000A8E4FFFF706C616365000000B3
:1043A0007069636B000000006368617267650000FC
:1043B0005375636365737300C0270900FEF71CB86B
:1043C00030B593B030216846FBF75EFF14210CA88E
:1043D000FBF75AFF1D480025016841F0805101603C
:1043E000006800F0805011901948016841F4404184
:1043F00001600068022400F4404011900120009008
:10440000000401908001CDE9064006200890A82014
:10441000CDE9090404200B906846FEF773F908B152
:1044200072B6FEE70CA90F2081E831004FF4A050CE
:104430000F904FF48050109005210CA8FEF776F8ED
:10444000002801D072B6FEE713B030BD40380240FC
:10445000007000400248016841F47001016070473B
:1044600088ED00E007480068C168C943C90707D163
:10447000891E016104480168491C016000F0EABD21
:10448000704700000802002000000020F0B502681C
:10449000254C264D264E274F274B4FF0804CA042EF
:1044A00009D0604507D0A84205D0B04203D0B84239
:1044B00001D0984204D122F0700E4A6842EA0E02FE
:1044C000A0421BD0604519D0A84217D0B04215D0E9
:1044D000B84213D0984211D0184DA8420ED0184DB2
:1044E000A8420BD0174DA84208D0174DA84205D0BE
:1044F000164DA84202D0164DA84203D122F44075B1
:10450000CA682A434D6922F080022A4302608A6801
:10451000C2620A688262A04201D0984201D1096950
:10452000016301214161F0BD000001400004004031
:1045300000080040000C0040000401400040014021
:10454000004401400048014000180040001C0040A9
:104550000020004010B501F01F030121046A9940BA
:104560008C430462016A9A401143016210BD00004D
:10457000F0B5026A22F001020262036A42688469AD
:10458000124E24F073050C682C4323F002058B684F
:104590002B430D4DA84201D0B04205D123F00807AE
:1045A000CB683B4323F00403A84201D0B04205D1BD
:1045B0004D6922F4407215438A692A43426084613E
:1045C000496841630362F0BD0000014000040140FE
:1045D000F0B5026A22F010020262026A436884693E
:1045E0000D6824F4E64444EA05248D6822F0200294
:1045F00042EA05120F4D104EA84201D0B04206D13A
:10460000CF6822F0800242EA071222F04002A8425C
:1046100001D0B04207D14D6923F4406343EA8503DA
:104620008D6943EA8503436084614968816302625E
:10463000F0BD00000000014000040140F0B5026A36
:1046400022F480720262026A4368C46922F4007232
:1046500024F073050C68124E2C438D6842EA052243
:104660000E4DA84201D0B04206D1CF6822F40062BC
:1046700042EA072222F48062A84201D0B04207D168
:104680004D6923F4405343EA05138D6943EA05134A
:104690004360C4614968C1630262F0BD000001402B
:1046A0000004014030B5026A22F480520262046ABA
:1046B0004268C3690D6823F4E64343EA05238D6825
:1046C00024F4005444EA0534084DA84202D0084DB1
:1046D000A84204D14D6922F4804242EA8512426028
:1046E000C36149680164046230BD000000000140FC
:1046F00000040140124808B50268002142F001029E
:10470000026000684FF0804200F0010000900D4808
:10471000026041F26702C0E901210922C0E90321D8
:104720004161FEF7B9F90748FEF7E4F901220021DB
:104730001C20FDF7C9FEBDE808401C20FDF7B6BEF1
:1047400040380240080200202DE9F0414C4886B074
:104750000024016841F010010160016801F01001BE
:104760000591474910310A6842F080420A600968A1
:1047700001F080410591016841F400110160006879
:10478000082500F4001005904FF48070009002207E
:104790000190012002900320CDE90305394E6946BE
:1047A0003046FDF7FFFC80200090694604953046B6
:1047B000FDF7F8FC354D344828604FF41650C5E934
:1047C00001040C20EC60C5E90440AC612846EC61B2
:1047D000FEF79AFC05F144062D4830604FF0206743
:1047E000C6E901744FF48068C6E903487461B46196
:1047F000F461346230467462FDF732FC08B1FCF7B4
:10480000A5FDAE63B563214E2148A4363038E6E8F5
:1048100002074020474691C61C4846F81449A43078
:10482000B461F46134627462FDF71AFC08B1FCF7FC
:104830008DFD6E63002211465220B563FDF744FEE4
:104840005220FDF733FE002201210C20FDF73CFE33
:104850000C20FDF72BFE002201210E20FDF734FE77
:104860000E20FDF723FE3A460A490848FEF77FFC72
:104870002868C16841F01001C16006B0BDE8F08150
:10488000303802400010024000780040640F0020E1
:104890005860024068100020104810B50068016898
:1048A000C90615D56FF0100101600C48443000684E
:1048B0004068C0F580610A484180012101700748C5
:1048C000FEF79BFA4FF4806206490448FEF74FFC5E
:1048D000BDE810400148FEF7E3BA0000640F002075
:1048E000540000206810002070B517480068016867
:1048F000C90624D56FF0100101601348A430006888
:104900004068124CC0F580706080012020700E4815
:10491000FEF773FA4FF4807529460D48FBF7B4FC97
:1049200062880C490A48D21CFBF795FC29460948C5
:10493000FBF7AAFC2A4607490348FEF718FCBDE826
:1049400070400148FEF7ACBA600C00205000002017
:10495000640E0020640D002010B5806B0021C1851D
:10496000C184FEF79CFA10BD70B5846B2068406965
:1049700094F83D10C0F3C0100025212904D118B1CE
:10498000E584204600F0B0F82068406994F83E10B5
:10499000C0F38010222904D118B1E585204600F02B
:1049A0007CF8206C40F0100020642046FEF777FA77
:1049B00070BD10B50146806B09680968C9052FD420
:1049C0000021C18501680C3151E8002F22F480726A
:1049D00041E80023002BF5D10168143151E8002F84
:1049E00022F0010241E80023002BF5D101681431C7
:1049F00051E8002F22F0400241E80023002BF5D1BE
:104A0000202180F83E10016B012909D101680C3189
:104A100051E8002F22F0100241E80023002BF5D1CD
:104A2000016B012902D0FEF7B7FB10BD818DFEF7A7
:104A300099F910BD10B5806B016B012902D0FEF70A
:104A4000ACFB10BD818D4908FEF78CF910BD10B587
:104A50000146806B09680968C90516D40021C18424
:104A60000168143151E8002F22F0800241E8002350
:104A7000002BF5D101680C3151E8002F42F04002C3
:104A800041E80023002BF5D110BDFEF727FC10BD37
:104A900010B5806BFEF73AFC10BD01680C3151E88F
:104AA000002F22F4907241E80023002BF5D1016819
:104AB000143151E8002F22F0010241E80023002BBD
:104AC000F5D1016B012909D101680C3151E8002FA2
:104AD00022F0100241E80023002BF5D1202180F8BC
:104AE0003E1000210163704701680C3151E8002F2E
:104AF00022F0C00241E80023002BF5D1202180F8EC
:104B00003D10704708B590F83E10222901D00220D0
:104B100008BD82684FF480539A4201D1016921B1E6
:104B2000816A9A421BD04AB10AE00268816A5268DF
:104B3000C2F308020A80816A891C08E0026972B126
:104B40000268526802F07F020A70816A491C816221
:104B5000C18D491E0904090CC18503D019E0026802
:104B60005268F1E70168CA6822F02002CA60016851
:104B7000CA6822F48072CA6001684A6922F00102A0
:104B80004A61202180F83E10016B012903D0FEF715
:104B900003FB002008BD0021016301680C3151E8CE
:104BA000002F22F0100241E80023002BF5D101680C
:104BB0000A68D20602D50A6849680091818DFEF71D
:104BC000D1F8E6E770B5044600680169E26821F4AF
:104BD0004051114301612169A068E269084361699C
:104BE000114308432168CA6849F20C639A4302439F
:104BF000CA6020684169A26921F440711143416192
:104C000031492068884202D03049884202D1FDF7FC
:104C100037FD01E0FDF724FDE26900231921642539
:104C20003226B2F5004F626828D0A0FB0101930F35
:104C30009200FBF7D9FA0146B0FBF5F06FF01802CD
:104C4000504301EB800006EB0010B0FBF5F000F0E4
:104C5000F002B1FBF5F002EB0012B1FBF5F06FF0E2
:104C60001803584301EB800006EB0010B0FBF5F091
:104C700000F00F0021681044886070BDA0FB0101A6
:104C800092185B41FBF7B0FA0146B0FBF5F0020168
:104C9000B1FBF5F06FF01803584301EB800006EB11
:104CA000C000B0FBF5F000F0F80002EB4002B1FBF1
:104CB000F5F0584301EB800006EBC000B0FBF5F0C7
:104CC00000F00700D6E7000000100140001401408A
:104CD00038B581628285002513460446056422208A
:104CE00084F83E00A26B1B48D063A26B1A48106484
:104CF000A26B1A48D064A06B0A4605652168A06BB8
:104D0000091DFDF717FA206801684068009084F8D3
:104D10003C5020680C3050E8001F41F4807140E89E
:104D20000012002AF5D12068143050E8001F41F02D
:104D3000010140E80012002AF5D12068143050E843
:104D4000001F41F0400140E80012002AF5D1002088
:104D500038BD0000B3490008354A00086949000819
:104D60002DE9F041984617460E460446069D27E079
:104D7000681C25D02DB1FDF739FBA0EB0800A84237
:104D80001ED920680C3050E8001F21F4D07140E893
:104D90000012002AF5D12068143050E8001F21F0DD
:104DA000010140E80012002AF5D1202084F83D00DE
:104DB00084F83E00002084F83C000320BDE8F08128
:104DC0002068006836EA000004D00020B842CFD046
:104DD0000020F3E70120F9E7104808B500680168F2
:104DE000C9061AD50168406800900C484430006834
:104DF0004068C0F124010A4841804188122901D14C
:104E0000012101700548FDF7F8FF04492422BDE89F
:104E1000084024390148FEF7AAB908BDB8020020AD
:104E20004800002070B5174800680168C90624D5FD
:104E30006FF0100101601348A43000684068124C04
:104E4000C0F580606080012020700E48FDF7D5FF1E
:104E50004FF4806529460D48FBF716FA62880C4925
:104E60000A48D21CFBF7F7F929460948FBF70CFA68
:104E70002A4607490348FEF77AF9BDE87040014821
:104E8000FEF70EB85C0300204C00002060080020F4
:104E9000600400202DE9F04346488DB000240168ED
:104EA00041F008010160016801F008010C910168FE
:104EB00041F080010160006800F080000C903D48E6
:104EC0001030016841F004010160016801F0040143
:104ED0000C91016841F0080101600068022500F0B2
:104EE00008000C904FF40050CDE90005324ECDE99A
:104EF0000245694630460495FDF754F9E8028DE80D
:104F00003100694630460395FDF74CF96802CDE95A
:104F100000052A4ECDE90245694630460495FDF765
:104F200041F9A8028DE83100694630460395FDF746
:104F300039F92448224953260160C0E9016440F24E
:104F4000E739C0E903944461FDF7A6FD4FF4FA7810
:104F5000CDE9068560271B4805970994FDF770FE8B
:104F6000042205A91748FDF705FE164816494830E2
:104F70000160C0E90164C0E903944461FDF78CFD60
:104F80001048CDE90685483005970994FDF758FE8D
:104F90000C48002205A94830FDF7ECFD0421094822
:104FA000FDF77CFE074800214830FDF777FE0DB085
:104FB000BDE8F08330380240000C0240001C024083
:104FC0000008004078010020000C004070B54FF44C
:104FD00000611D48FDF700FA012600251B4C012841
:104FE00001D040B10CE0A08808B9A680E580E08837
:104FF000401CE08004E0A08810B1A580E0886080BB
:1050000060884FF42A014843000C20804FF48051FF
:105010000F48FDF7E1F9012801D040B10CE0A0896B
:1050200008B9A681E581E089401CE08104E0A089FF
:1050300010B1A581E089608160894FF42A0148435D
:10504000000C208170BD0000001C024022000020E6
:10505000000C02402DE9F04786B0FEF763FE68467B
:10506000FEF7C6FC162269464148FBF7F4F8FEF746
:10507000CDFC404C2070FCF765F8A070207801282A
:1050800004D0022814D0032812D021E0607801282F
:1050900009D001206070FCF707F90020FEF752FFED
:1050A0000020FEF757FFFCF70FF9FEF761FF0FE056
:1050B0006078022807D00020FEF744FF0020FEF7AA
:1050C00049FF02206070FEF7CDFC2078FEF71CFC43
:1050D00028482830FCF7FAF9254F0024DFF894908F
:1050E000F03F09F12809A7F5B07509F1080805F1A5
:1050F000500A00BFC4EB041007EB800639F9140016
:10510000314600F089F8304600F03AF800EE100A17
:1051100004EB840628F8140035F92600F8EEC00ADE
:1051200000EE100A04EB04110AEB8100B8EEC00A8D
:10513000FEF7C2FABDEEC00A05EB8601641C10EE54
:10514000100A042C8880D5DBB5F94010B5F92C0085
:10515000CDE90001B5F91830B5F904204FF400711C
:105160000548FEF7CDFE06B0BDE8F047FEF7B2BE3B
:10517000B81600205800002010010020FEE70000B3
:1051800090ED0E0A104910EE100A884202DD9FEDE4
:105190000F0A06E010EE100AB0F1474F01D99FED5B
:1051A0000C0AB5EEC00AF1EE10FA02DBF6EE000AC8
:1051B00001E0FEEE000A30EE800ABDEEC00A10EEFD
:1051C000100A00B27047000000FEFF4600FEFF46D6
:1051D000000000C710B504462DED048BB0EE618AC7
:1051E000B0EE609AF0EE418AF0EE480AFCF72AF938
:1051F000F0EE480AB0EE490A04F11400FCF722F977
:10520000F0EE480AB0EE680ABDEC048B04F1280009
:10521000BDE81040FCF716B910B50C46FCF72AF9AA
:1052200094ED040A04F11401BDEEC00A10EE100A58
:1052300000B2FCF71FF994ED090A04F12801BDE85A
:105240001040BDEEC00A10EE100A00B2FCF712B911
:105250000FB4054B10B503A9044A029800F076F983
:1052600010BC5DF814FB0000C560000804010020BC
:105270000FB47CB50C0009AD01D0611E00E0002127
:10528000CDE90001064B6A462946089800F05EF910
:10529000002C02D0009A002111707CBC5DF814FB38
:1052A000535C00080907090E002804DB00F1E02028
:1052B00080F80014704700F00F0000F1E02080F843
:1052C000141D704730B528B1144C031F002021680D
:1052D0000A4605E0084630BD9A4203D81046526897
:1052E000002AF9D1002800D041680BD00468A3EB54
:1052F0000005A54204D11B681C440346046002E07B
:10530000436000E023603AB11C68D51AA54203D17E
:1053100015682C441C6052685A6030BD080100209A
:1053200000B583B09FED060B0A4601468DED000BDC
:105330006846FBF77CFB9DED000B03B000BD000051
:1053400000000000000000002DE9F04782460F4CED
:1053500010480D4E0E4F001B4FF0000820F00705BF
:105360004FF0010900221146504600F06DFF002861
:1053700002D1306810B10020BDE8F0873C60C4E97C
:105380000058C6F80090EDE70C010020142600201C
:10539000080100201035002002E008C8121F08C1D3
:1053A000002AFAD170477047002001E001C1121FA6
:1053B000002AFBD1704700002DE9FF5F82B0002179
:1053C000DDE90430020DDDF840B0034318D044F6A7
:1053D0001050A2F2FF3242431514119801281FD039
:1053E000A5EB0B00401C5FEA000A4FF000064E4F91
:1053F000DFF83891B046504615D5CAF1000413E0E5
:10540000119801244AA3012801D16FEA0B010298E7
:10541000119AC0E90031C0E9024206B0BDE8F09F30
:10542000CBF10000DFE704460021404A491842EB77
:105430000450CDE9001012E0E00707D032463B46A9
:1054400040464946FBF7AFF98046894632463B461F
:1054500010461946FBF7A7F906460F466410002CC4
:10546000EAD1DDE90401DDE90023BAF1000F06DA33
:10547000FBF799F942464B46FBF795F905E0FBF738
:1054800066FB42464B46FBF762FB04460E46002293
:10549000284BFBF731FA03D84FF0FF30014607E005
:1054A0000022254B20463146FBF7D6F8FBF7CAFB16
:1054B000102409E0002C0ADB0A220023FAF794FEEC
:1054C000039B30321A55641E50EA0102F2D1641C6B
:1054D000039AC4F111031444119A012A03D0012242
:1054E00008430DD10AE0084304D000204FF0110B0F
:1054F000119072E7A3EB0B056D1E0DE05B4504DD1B
:105500004FF0000205F1010504E003DA4FF000025C
:10551000A5F10105002AECD002981199C0E90231E9
:10552000C0E9004579E70000000014400000F03FAA
:10553000300000000000F0430000E03F30380A284F
:1055400001D2012070470020704700002DE9FF4F75
:1055500095B09A46884606460025EEE1252877D183
:1055600000242746F94A0121039400E0044316F879
:10557000013F203B01FA03F01042F7D130782A288E
:1055800011D06FF02F033078A0F13002092A16D81D
:10559000039A44F0020402EB820203EB420210443D
:1055A000761C0390EFE758F8042B0392002A03DAE5
:1055B000504244F40054039044F00204761C3078C6
:1055C0002E2816D116F8010F44F004042A280DD015
:1055D0006FF02F023078A0F13003092B09D807EBC8
:1055E000870302EB4303C718761CF3E758F8047BE4
:1055F000761C30786C280FD006DC4C2817D0682831
:105600000DD06A2814D104E0742810D07A280FD164
:105610000DE044F400140AE044F4801401E044F482
:1056200040147278824202D104F58014761C761CF4
:10563000307866280BD013DC582877D009DC002896
:1056400075D04528F6D04628F4D047281AD193E1E2
:1056500018E0632835D0642879D0652812D18BE111
:10566000702873D008DC6728F1D069286FD06E28C5
:105670000DD06F2806D1ACE073282CD0752874D0DB
:10568000782853D05246179990476D1C54E1C4F3C3
:105690000250022809D003280DD0D8F800100428A1
:1056A0000DD00D6008F1040846E1D8F80010EA17A3
:1056B000C1E90052F6E7D8F800100D80F2E70D704E
:1056C000F0E718F8041B8DF8001000208DF8010099
:1056D000EB46012003E058F804BB4FF0FF306107B0
:1056E0004FF0000102D40DE009F101018946B942F1
:1056F0000FDA8145F8DB1BF809100029F4D108E026
:1057000009F1010189468142FADB1BF809100029E1
:10571000F6D103985346A0EB090721463846179A5D
:1057200000F080FA284400EB090507E044E008E1B6
:105730000DE01BF8010B524617999047B9F101098A
:10574000F7D2534621463846179AF2E039E00A214B
:10575000C4F302524FF0000B0091022A06D058F811
:10576000040BC117032A09D00AE023E008F107005F
:1057700020F00702F2E80201904605E000B2C117EE
:10578000042A01D140B2C117002906DA0A460021D5
:10579000404261EB02012D2202E0220504D52B22BA
:1057A0008DF80420012203E0E20701D02022F7E770
:1057B000914657E00A2100E010214FF0000B0091C4
:1057C0000BE010214FF0000B44F004040827009177
:1057D00003E008204FF0000B0090C4F30252022AAD
:1057E00005D058F8040B0021032A08D008E008F17E
:1057F000070020F00702F2E80201904603E080B2C1
:10580000042A00D1C0B24FF0000922072AD532780D
:10581000702A07D0DDF800C08CF0100C5CEA0B0C8D
:1058200005D00EE040228DF80420012208E050EA65
:10583000010306D030238DF804308DF805200222B4
:105840009146009B83F0080353EA0B030AD150EA08
:10585000010201D1620705D530228DF804204FF0F6
:1058600001097F1E3278582A04D039A20C920CAA62
:1058700002920BE03BA2F9E75B46009AFAF7B4FC10
:105880000C9B9B5C029A521E0292137050EA01021A
:10589000F2D1029804A9081A00F1200B600702D582
:1058A00024F4803400E001275F4502DDA7EB0B0004
:1058B00000E0002000EB0B01009003984944401ADF
:1058C0000390E00306D453462146179A039800F04C
:1058D000A9F90544002706E001A85246C05D1799C2
:1058E00090476D1C7F1C4F45F6DBE0030CD55346FB
:1058F0002146179A039800F095F9054404E03020FA
:105900005246179990476D1C0099481E0090002937
:10591000F5DC08E00298029952460078491C029191
:10592000179990476D1CBBF10001ABF1010BF1DC45
:105930005BE100F065F90544761C307800287FF4BF
:105940000DAE19B02846BDE8F08F0000092801000F
:1059500030313233343536373839616263646566E5
:1059600000000000303132333435363738394142A7
:105970004344454600000000600700D4062708F1B4
:10598000070020F00700F0E80223804603F0004CF7
:105990005FEA0C0001D097A009E0200501D596A090
:1059A00005E0E00701D095A001E0AFF24C001390B4
:1059B000307823F0004365280CD006DC452809D058
:1059C00046281DD047287FD13BE0662818D067289D
:1059D0007AD136E00021112F01DB112000E0781C84
:1059E000CDE9000104A90CA8FFF7E6FCDDE90D01F3
:1059F0000C9A4FF0000B07F10109109200914EE054
:105A00004FF000400097CDE9011004A90CA8FFF762
:105A1000D3FCDDE90D020C9B0F994FF0000B914672
:105A20001093009211B9791C00EB0109B7EB090042
:105A300003D4C0F1FF3B07F10109A9EB0700019076
:105A400042E0012F00DA01270021112F01DD112092
:105A500000E03846CDE9000104A90CA8FFF7ACFC32
:105A6000DDE90D010C9A00914FF0000BB946109240
:105A700021070FD4009A4A4503DA914601E0A9F1C3
:105A80000109B9F1010F05DD109AA9F10101515C7D
:105A90003029F4D0B84202DA10F1040F03DA012100
:105AA000CDE9011010E0002803DC8344A9EB0001DC
:105AB00002E0411C494500DD8946A0EB0B00401C7B
:105AC00001904FF000400290200705D4019848450E
:105AD00002DB4FF0FF30019000208DF84B00029860
