:020000040800F2
:10000000E0390020C50100080D3800086B340008F5
:1000100019370008FD110008A55400080000000071
:10002000000000000000000000000000A93E0008E1
:100030000513000800000000B1390008E14600087F
:10004000DF010008DF010008DF010008DF01000810
:10005000DF010008DF010008DF010008DF01000800
:10006000DF010008DF010008DF010008311200088D
:100070003D120008DF01000849120008DF010008F6
:10008000DF010008DF010008DF0100080D12000891
:1000900001120008DF010008DF010008DF0100088D
:1000A000DF010008DF010008DF010008DF010008B0
:1000B00089470008DF010008DF010008DF010008B0
:1000C000DF010008DF010008DF010008DF01000890
:1000D000DF010008FD500008DF010008DF01000813
:1000E000DF010008DF010008DF010008DF01000870
:1000F000DF010008DF010008DF010008DF01000860
:10010000DF010008DF010008DF010008DF0100084F
:10011000DF010008DF010008DF010008DF0100083F
:10012000DF010008DF010008DF010008DF0100082F
:10013000DF010008DF010008DF01000825120008C8
:1001400019120008DF010008DF010008DF010008C4
:10015000DF01000855120008DF01000849510008BE
:10016000DF010008DF010008DF010008DF010008EF
:10017000DF010008DF010008DF01000800000000C7
:10018000DF010008DF010008BD4B00080D4C00082E
:10019000DF010008DF010008DF010008DF010008BF
:1001A0000000000000000000DF010008DFF810D0B0
:1001B00000F090FD00480047E9650008AFF30080BB
:1001C000E03900200648804706480047FEE7FEE782
:1001D000FEE7FEE7FEE7FEE7FEE7FEE7FEE7FEE7F7
:1001E00079470008AD0100082DE9F05F05460020C1
:1001F00092469B4688460646814640241BE0284698
:1002000041464746224600F0C8FB53465A46C01AAC
:10021000914110D311461846224600F0AFFB2D1A2B
:1002200067EB01084F4622460120002100F0A6FBA3
:1002300017EB00094E41201EA4F10104DFDC484603
:1002400031462A464346BDE8F09FA0F141011929F5
:1002500000D82030704740EA01039B0703D009E033
:1002600008C9121F08C0042AFAD203E011F8013BA2
:1002700000F8013B521EF9D27047D2B201E000F8FB
:10028000012B491EFBD270470022F6E710B513463A
:100290000A4604461946FFF7F0FF204610BD421CEF
:1002A00010F8011B0029FBD1801A704710B50022FD
:1002B00000E0521C835C8C5CA34201D1002BF8D17E
:1002C000D8B2E1B2401A10BD034611F8012B00F874
:1002D000012B002AF9D11846704730B50546002099
:1002E000034600E05B1C934205D2EC5CC85C201A1C
:1002F00001D1002CF6D130BD2DE9FF4F087883B035
:100300009946FF2805D0491C2D2804D00024002040
:1003100008E000200BE00124F9E700EB800003EB8C
:100320004000491C0B78FF2BF7D104B14042002359
:100330000293147819461D462D2C01D02B2C04D184
:10034000521C2D2C13D000240294AA461478FF2CA2
:100350000FD00A25A3FB057801FB05814FF0000CA7
:1003600003FB0C11521CE3194AEB0101EEE70124D7
:10037000EAE7814453EA010002D019F5C87F06DAA2
:1003800003980021C0E9001107B0BDE8F08F0025F7
:10039000AE4E2F46DFF8B882184600F05BFCCDE980
:1003A0000001B9F1000002DAC9F1000400E00446DE
:1003B0000023A74A1AEB030B42EB045A12E0E007B2
:1003C00007D02A4633463846414600F0ECF9074646
:1003D00088462A4633461046194600F0E4F9054699
:1003E0000E466410002CEAD1DDE90001B9F1000FDE
:1003F0005A46534606DA00F0BEFB3A46434600F042
:10040000BAFB05E000F0CFF93A46434600F0CBF9DD
:10041000029A0AB181F00041039AC2E90001B3E7F0
:100420002DE9FF4F1F468DB0D7E901464FF0FF3849
:100430002E2045464FF000090B90B9696D1C0E98AF
:100440008847396A824688470028F6D1BAF1FF3FCB
:100450000AD024F4D064002E11DDBAF12B0F08D09D
:10046000BAF12D0F0BD102E0404611B08DE744F4F4
:100470008064B9696D1C0E9888478246761E69466D
:10048000600501D52D2000E02B208DF8000001F142
:10049000010B0DF1200809E0B9696D1C0E98884721
:1004A00082460F9844F40074761E0560002E02DD2B
:1004B000BAF1300FF0D00B998A453ED144F0800458
:1004C00006E00F99681CA9F1010944F40074086062
:1004D000B9696D1C761E0E98884782463028F0D088
:1004E0002BE00B998A4505D1200603D444F0800403
:1004F000761E18E0504605F0B5F908B30DF113016A
:10050000761E44F400748B4508D2AAF130000BF833
:10051000010B200607D5A9F1010003E0200602D453
:1005200009F101008146A00502D50F99681C0860F9
:10053000B9696D1C0E9888478246002ED1DC53E0C5
:10054000002E51DDBAF1650F02D0BAF1450F4BD143
:10055000A00549D5B9696D1C24F44074761E0E9827
:1005600088478246002E0CDD2B2804D0BAF12D0FCF
:1005700007D144F48074B9696D1C0E98884782468F
:10058000761EE00501D52D2100E02B2108F8011B86
:10059000CDF82C8021E00DF12901761E44F4007481
:1005A00088450CD2AAF1300010F0FF0088F8000056
:1005B00002D10B99884509D908F1010806E0E00548
:1005C00001D5244801E042F20F708146B9696D1CE3
:1005D0000E98884782460F980560002E04DD50462D
:1005E00005F040F90028D6D1F9690E988847FF2018
:1005F0008BF8000088F800000020069007904B461A
:100600006A4608A906A8FFF777FEA00502D46FF096
:1006100001002AE714F0240F0AD0E00714D1DDE925
:1006200006123868031D3B600068C0E900120BE049
:10063000DDE9060100F032FB0146E00704D138682D
:10064000021D3A600068016028460EE70000144071
:100650000000F03FF1D8FFFF2DE9FE4F804681EA10
:100660000300C00F0C46009021F0004123F000452C
:10067000B8EB0200A94105D24046214690461C46EF
:100680000B46024623F00040104347D0270DC7F326
:100690000A00C3F30A510290401A019040286BDA15
:1006A000C3F3130040F4801B0098924620B100234E
:1006B000D2EB030A63EB0B0B01985946C0F14002E1
:1006C000504600F05BF906460D4650465946019AE1
:1006D00000F073F910EB08006141002487EA115221
:1006E00084EAE7731A4340D0009A62B3019A012A60
:1006F0004FEA075215DC001B61EB02014FF000428C
:1007000002EA0752CDE90042001C41F58011324651
:100710002B4600F0E2F903B0BDE8F08F40462146D9
:10072000F9E7001B61EB0201001C41F58013001882
:100730005B412018A2F5001747EB030140EAD57092
:10074000B6196D4111E06D084FEA360645EAC075ED
:100750004FEA0752001B61EB0201001C41F58011BA
:1007600049084FEA30000019514132462B4603B088
:10077000BDE8F04F00F0A2B900980122400000232C
:10078000D0EB020263EBE073009821464FEAE0747D
:10079000B8EB000061EB0401E9E783F000435BE79D
:1007A00081F0004158E72DE9FE4F81EA030404F08F
:1007B000004421F0004100944FF0000B23F000436F
:1007C00050EA01045ED052EA03045BD0C3F30A543A
:1007D000C1F30A552C44A4F2F3340194A0FB025453
:1007E000C1F3130141F48011C3F3130343F48013E5
:1007F00001FB024400FB034E840A970A44EA815439
:1008000047EA8357A4FB076802958D0A05FB078515
:100810004FEA932C04FB0C542705029D4FEA06581F
:1008200047EA1637B5EB08056EEB070C870E920EFC
:1008300047EA811742EA8312A7FB0201B6EB0B01DC
:1008400064EB00042B0D43EA0C335E1844EB1C50A0
:10085000DA465146E7FB0201C5F313044FEA0B33B6
:1008600043EA14534FEA0432019C43EA0603A4F11D
:100870000C040294009CCDE900B400F02EF903B002
:10088000BDE8F08F00200146F9E770B5C1F30A52C8
:1008900001F000450024C1F3130140F2FF3341F49D
:1008A00080119A4201DA002070BD40F233439A422F
:1008B000A2F2334203DC524200F06FF800E09040B5
:1008C0002C43F1D0404270BD00F0004230F00040B7
:1008D0000AD0C10D01F56071C0F3160042EA015162
:1008E000C2084007114370470020014670470000CE
:1008F00030B5041E71F1000404DB4FF000444042A7
:1009000064EB0101141E73F1000405DB1C464FF07B
:100910000043524263EB04038B4208BF824230BD66
:1009200030B5041E71F1000404DB4FF00044404276
:1009300064EB0101141E73F1000405DB1C464FF04B
:100940000043524263EB0403994208BF904230BD1A
:1009500030B50B46014600202022012409E021FA8F
:1009600002F59D4205D303FA02F5491B04FA02F58C
:100970002844151EA2F10102F1DC30BD202A04DB5F
:10098000203A00FA02F1002070479140C2F12003A2
:1009900020FA03F3194390407047202A04DB203AE1
:1009A00021FA02F00021704721FA02F3D040C2F18F
:1009B00020029140084319467047202A06DBCB17D6
:1009C000203A41FA02F043EAE07306E041FA02F30A
:1009D000D040C2F120029140084319467047426856
:1009E00042B1016811F8013B23B1521EC0E9001267
:1009F000184670470121C160881E704742685AB18D
:100A0000C368016843B983688B4205D0491E521CF4
:100A1000C0E90012002070474FF0FF30704700001F
:100A20000FB4002300B589B00CA900910B996FF0A9
:100A30000042CB601E4B06931E4B07930423CDE967
:100A400001321D4A089202466B460020FFF7E8FC7F
:100A500009B05DF814FB70B586B006464FF0FF3064
:100A60000091CDE90101002015460C460490324664
:100A7000694604A8FFF7D4FF02460498211825B15F
:100A800008B1084600E020462860049800280DD0F0
:100A9000002A02DD0098884208D0081B0094CDE9A6
:100AA00001043246694604A8FFF7BAFF06B070BDDC
:100AB000DF090008FD090008F90C000810B5141E34
:100AC00073F1000408DA401C41F1000192185B4107
:100AD0001A4301D120F0010010BD2DE9F04D9246DE
:100AE0009B4611B1B1FA81F202E0B0FA80F22032F5
:100AF0009046FFF743FF04460F4640EA0A0041EAEA
:100B00000B0153465A46084313D0114653EA0100DD
:100B100019D0C8F140025046FFF73FFF05460E4688
:100B2000504659464246FFF729FF084305D00120A9
:100B300004E020463946BDE8F08D0020054346EA32
:100B4000E0762C4337430A986305E40AA0EB0800DB
:100B50000022FD0A44EA47540A3002D5002001462B
:100B6000E9E7010510196941DDE908450019694106
:100B7000BDE8F04DA2E72DE9F04D81EA030404F051
:100B8000004B21F0004514464FF0000A23F00041CD
:100B900050EA050220D054EA01021DD0C5F30A57DD
:100BA0000246C5F31303C1F31300C1F30A5640F420
:100BB000801543F48013A7EB0608101BD64608F2F5
:100BC000FD3873EB050002D308F1010801E092182B
:100BD0005B41B8F1000F03DA00200146BDE8F08D5B
:100BE00000204FF48011064684460EE0171B73EB7D
:100BF000050705D3121B63EB050306434CEA010C02
:100C000049084FEA300092185B4150EA0107EDD1E4
:100C100052EA030012D082EA040083EA0501084385
:100C200005D0101BAB4106D20122002306E00022B2
:100C30004FF0004302E06FF0010253101AEB060080
:100C40004CEB085110EB0A0041EB0B01BDE8F04DF5
:100C5000FFF734BF0EB540F2334202920022CDE9D5
:100C600000221346FFF739FF03B000BDC1F30A525B
:100C7000C1F3130140F2FF3341F480119A4202DACA
:100C800000200146704740F233439A42A2F23342B9
:100C900002DC5242FFF781BEFFF770BE01F0004355
:100CA00030B421F0004150EA010206D00A0DA2F54D
:100CB0006072C1F31301002A02DC30BC00207047CF
:100CC000440F44EAC104C100E01830BC00EBC2503C
:100CD00000F017B8064C074D06E0E06840F001034D
:100CE00094E8070098471034AC42F6D3FFF762FA55
:100CF0007078000890780008C0B24FF4F05100F00E
:100D000037B80029A8BF7047401C490008BF20F031
:100D10000100704710B4B0FA80FC00FA0CF050EA01
:100D2000010404BF10BC704749B1CCF1200421FA82
:100D300004F411FA0CF118BF012121430843A3EB7D
:100D40000C01CB1D4FEA00614FEA102042BF00208A
:100D500010BC704700EBC35010440029A4BF10BC66
:100D60007047401C490008BF20F0010010BC7047CC
:100D70007F2801D9002208E0064A02EB5002C00792
:100D8000127800D1120902F00F02012090400840B1
:100D900070470000E677000870B58C1810F8015B0A
:100DA00015F0070301D110F8013B2A1106D110F804
:100DB000012B03E010F8016B01F8016B5B1EF9D108
:100DC0002B0705D40023521E0DD401F8013BFAE78E
:100DD00010F8013BCB1A921C03E013F8015B01F8F9
:100DE000015B521EF9D5A142D8D3002070BD00008E
:100DF00010B50E4802F065F80C4C202084F83E0037
:100E0000204602F061FA4FF4806204F582712046B8
:100E100002F05BFA04F1A401012081F8350020689A
:100E2000C16841F01001C16010BD00008C030020BA
:100E30002DE9F043434887B00024016841F04001A8
:100E40000160016801F0400105913E4914310A68D2
:100E500042F020020A60096801F020010591016852
:100E600041F4800101600068142100F480000590C5
:100E70006846FFF709FA4FF4844000900220CDE95C
:100E80000104032003900820049069462E4801F0D5
:100E900037FA2F4D2D4828604FF41650C5E901044C
:100EA0000C20EC60C5E90440AC612846EC6102F01E
:100EB000D9F905F1440627484FF02068E6E8020812
:100EC0004020070191C64FF4003946F8144905F156
:100ED0004400B461C6E90749746201F06FF96E63BA
:100EE0001C48B56305F1A40678383060C6E9018472
:100EF000C6E903477461B461C6E9074930467462C4
:100F000001F05CF9AE63002211464720B56301F0A1
:100F100089FB472001F078FB00220121452001F0E8
:100F200081FB452001F070FB3A4605F582712846A9
:100F300002F0CBF92868C16841F01001C16007B028
:100F4000BDE8F08330380240001802400014014030
:100F50008C030020A06402402DE9F043434887B091
:100F60000024016841F010010160016801F01001E6
:100F700005913E4910310A6842F000420A60096852
:100F800001F000410591016841F400110160006821
:100F9000142100F4001005906846FFF775F903204E
:100FA00002218DE813000390082004906946304820
:100FB00001F0A6F9304D2F4828604FF41640C5E9DE
:100FC00001040C20EC60C5E90440AC612846EC61EA
:100FD00002F048F905F1440628484FF02067E6E89A
:100FE000020740204FF48068A6E811014FF4003951
:100FF00046F8144905F14400B461C6E90749746232
:1010000001F0DCF86E631D48B56305F1A40690306D
:101010003060C6E90174C6E903487461B461C6E989
:1010200007493046746201F0C9F8AE6300221146E8
:101030005320B56301F0F6FA532001F0E5FA0022DF
:1010400001210B2001F0EEFA0B2001F0DDFA4FF444
:10105000807205F58271284602F037F92868C16868
:1010600041F01001C16007B0BDE8F08330380240A4
:1010700000100240007C0040900C002010600240F4
:1010800010B5FFF7D5FEBDE8104000F0A9B800008C
:1010900005292DD30278012A2AD14278032A27D1A3
:1010A000144A092902D38378042B09D007291FD3B6
:1010B000817802291CD1017911720FA004F05CBA69
:1010C00030F8031FDFED100A49BA09B200EE101A1A
:1010D0004088B8EEC00A40BA80EE201A00EE100A2E
:1010E000B8EE400A82ED001A80EE201A82ED011A55
:1010F000704700008818002052534F433A2025645F
:101100002025250A000000000000C8421FB50BA1E1
:101110000128D1E90021CDE900210AA2D2E900127B
:10112000CDE9021207D0022804D106210DF10800F2
:1011300004F060FF1FBD06216846F9E701030013B4
:1011400000020000010300280001000010B5174C48
:10115000A06804F049FF2070012803D1FFF748FE82
:101160000120607005F05EF958B11048001D05F0CF
:1011700049F9A06028B1A18819B1FFF789FF05F0EE
:1011800007F96088401C80B26080B0F57A7F09D092
:10119000B0F5FA6F08D1002060800120BDE8104052
:1011A000FFF7B4BF0220F9E710BD0000E000002007
:1011B0000348007A3E2801D2012070470020704782
:1011C00088180020054890ED000AB5EEC00AF1EE3F
:1011D00010FA01DD012070470020704788180020B8
:1011E00005489FED040A642180ED010A80ED000AA4
:1011F000017270470000000088180020FEE7000020
:10120000014800F0F6BB000040010020014800F05A
:10121000F0BB000040010020014800F0EABB0000E4
:1012200068010020014800F0E4BB000068010020D4
:10123000014800F0F3BE0000D40C0020014800F08B
:10124000EDBE000038100020014800F0E7BE0000AD
:10125000D80F0020014800F0E1BE0000D0030020BC
:1012600001681823CAB2103AB2FBF3F2054B6FF3D0
:101270000901032A9B5CC36500D9091D81650846E5
:1012800070470000C677000810B5014600208B6942
:101290008A6A4FF0C07453B1B3F5005F15D072B1D4
:1012A000012A0CD0022A0AD0032A09D104E01AB17B
:1012B000012A06D0022A03D1C96AC90100D501203A
:1012C00010BDC96AA142FAD010BD002AF7D0012A88
:1012D000F2D0022AF3D0032AF3D010BD30B504684F
:1012E000256825F480252560046863608368402BA9
:1012F000036803D099600068C26030BD9A600068DE
:10130000C16030BD7047000010B502F02BFF02F045
:10131000CDFD02F0C3FB02F065FD0249002008622A
:1013200010BD00005800002000B502F01BFF02F0C5
:1013300059FD0349002008625DF804EB02F0CEBDC0
:10134000580000202DE9F0418CB002F03DFC314DF9
:10135000314C00262870617D4FF0010801293AD1F7
:10136000032804D00120E070012803D004E000F03D
:101370008FF9F8E7E675A675274F287824370328F4
:1013800009D0E87810B3002184F82010A8783870CC
:101390007870E9B11FE0684600F08CF91E483022F1
:1013A00069462430FEF757FF786820B1012802D043
:1013B000032803D00FE084F820000CE0E07D10B19A
:1013C00084F8208007E084F8206004E00121DBE756
:1013D00000F076F9A870A07D20B1A07A10B184F851
:1013E0000C8000E02673287920B9207910B1A889F3
:1013F000401CA88120792871687928B9A078012833
:1014000002D1E889401CE881A07868710CB0BDE881
:10141000F0810000580000209814002072B6FEE70A
:1014200070B55A4D092903D3B0F8070040BA01E05E
:101430004FF6FF70E88056A155A0FEF737FF50B178
:1014400054A153A0FEF732FFF0B353A150A0FEF712
:101450002DFFD0B391E0E888B0F5CC5F4AD022DC14
:1014600041F64202A0EB0201904249D010DCA0F507
:1014700060607F383CD0A0F58060E5383ED0A0F5B4
:1014800080703B387BD0A0F500707E3874D13FE08F
:10149000012941D00A293DD0B1F59B7F3ED0B1F55D
:1014A0009C7F69D12EE044F6EE72811A904254D0AE
:1014B00012DCA0F20940B0F5804062D0A0F51060C7
:1014C000663860D00C2801E02EE048E01ED0A0F580
:1014D00000707B3850D10FE0B1F59F7F20D0B1F57F
:1014E0001A7F1FD0A1F20C51B1F5204F44D10BE06F
:1014F000052442E0062440E007243EE008243CE0C6
:1015000009243AE00A2438E00B2436E00C2434E0C5
:101510000D2432E00E2430E00F242EE010242CE0C5
:1015200011242AE0122428E0E8884BF24E12811A96
:10153000904226D007DC00F64D30B0F5C0400AD00E
:10154000062819D109E0B1F5607F1CD0A1F5106122
:10155000473911D113E063240FE004240DE0E8883B
:1015600000F2E310B0F520400BD0A0F55060153824
:1015700005D0B0F58D5F06D00024204670BD012453
:10158000FBE70224F9E70324F7E70000F40000205A
:1015900030313000303131003031340010B5044684
:1015A0002DED028BB0EE608AF0EE408A00F0A0F8DC
:1015B0009FED050A2060C4ED038A28EE000A84ED41
:1015C000020ABDEC028B10BD6F12833A70B50C4657
:1015D000054600F08DF860602168DFED110A411AC0
:1015E00000EE101AB8EE400A60EE200AC4ED020ABE
:1015F000206094ED030A30EE201A80EE810AF7EEA7
:10160000000A94ED041A70EEC00A20EE811A00EE72
:10161000905AF8EEE00A00EE201A84ED041A70BD2C
:101620006F12833A02498A6A0260C96A4160704750
:10163000580000200148807870470000F400002026
:101640000348007808B1002070470120704700006F
:10165000210000200148007A70470000881800200F
:1016600024220149FEF7F7BD98140020014890EDAF
:10167000000A70478818002010B54021034800F088
:1016800059FF012800D0002010BD000000200240BA
:1016900001488078704700000801002010B58021C3
:1016A000034800F047FF012800D0002010BD0000D3
:1016B0000020024030220149FEF7CDBDAC1C0020C5
:1016C0000A49012802D0122802D003E0012200E0DA
:1016D00002224A704A781221012A00D01030B0FB51
:1016E000F1F201FB1200401C70470000580000207E
:1016F00001480068704700000000002090F820209A
:10170000012A07D0022A05D0416A41F480214162B2
:1017100001207047006842690A4342610020704717
:10172000F0B590F820500468A468012D05D0022D72
:1017300003D0416A41F480215DE014F0406F01D193
:10174000E50055D5C4F30164022C03D9416A41F484
:10175000000150E00125A5401D608D684FF4C07365
:101760009DB1CE6835434E6845EAC605066803EB71
:101770000417F5514FF4C275076805EB04150E699F
:101780007E51097D012905D009E00E88CD6845EA22
:101790004655EBE701684E5946F480764E51117973
:1017A000D579567941EA056195792D0445EA0625F2
:1017B00029434FF4C676056806EB0416A951117843
:1017C000D57841EA0561957852782D0445EA0222E0
:1017D00011434FF4C475026805EB041551510068BC
:1017E00003EB0411425842F0010242500020F0BDC8
:1017F000416A41F4001141620120F0BD10B590F83A
:101800002020012A07D0022A05D0416A41F4802114
:101810004162012010BD3B48D0F8002242F0010295
:10182000C0F80022D0F8002222F47C52C0F8002236
:10183000D0F800224B6A42EA0322C0F800220A7D57
:1018400002F01F0301229A40D0F81C329343C0F8E3
:101850001C32CB69B3B9D0F80C329343C0F80C32C8
:101860008C894B6864F31F434C6900EBC404C4F8D3
:1018700040320C890B6864F31F434C6900EBC404CD
:10188000C4F84432CB69012B16D1D0F80C32134383
:10189000C0F80C320C884B6864F31F434C6900EBB2
:1018A000C404C4F840320C89CB6864F31F434C690C
:1018B00000EBC404C4F844328B69002BD0F8043226
:1018C0000ED01343C0F804320B69002BD0F8143249
:1018D00008D01343C0F81432096A012904D008E083
:1018E0009343EFE79343F5E7D0F81C121143C0F898
:1018F0001C12D0F8001221F00101C0F800120020E3
:1019000010BD000000640040704730B590F82040E2
:10191000012C05D0022C03D0416A41F480215DE006
:101920000468002955D02469A40754D04FF4D87412
:10193000056804EB01142D5915F004059560056840
:101940002D594ED0ED08556005682C5904F002045D
:10195000D4604FF4DA74056804EB01142D5905F0D6
:101960000F05156105682D59C5F3072595610568B3
:101970002C59240C54614FF4DC72046802EB011200
:10198000A4581C700468A458240A5C700468A45805
:10199000240C9C700468A258120EDA704FF4DE72A8
:1019A000046802EB0112A4581C710468A458240AAC
:1019B0005C710468A458240C9C710468A258120E2F
:1019C000DA71006881B1016941F0200101610020F4
:1019D00030BDE468A8E7416A41F40011416201208A
:1019E00030BD6D0D1560AFE7C16841F02001C160E9
:1019F000EDE72DE9F05F0546006800244669D0F860
:101A000004908768D0F80CB0D0F810A0D0F81880F7
:101A1000F10748D0F90714D001218160B80703D538
:101A2000284600F066FA0CE0780702D54FF400640F
:101A300007E0380702D54FF4805402E0284600F052
:101A400057FAF80516D529684FF480708860B805F4
:101A500003D5284600F04FFA0CE0780502D544F48F
:101A6000005407E0380502D544F4804402E02846DB
:101A700000F040FAF80316D529684FF480308860EA
:101A8000B80303D5284600F038FA0CE0780302D5F5
:101A900044F4004407E0380302D544F4803402E003
:101AA000284600F029FA300707D55FEACB6004D555
:101AB0002968102044F40074C86070074FF00807CC
:101AC00007D55FEA0B7004D52868C760284600F088
:101AD000B5F9B00706D52868C068800702D0284647
:101AE00000F0AEF9700607D55FEACA6004D5296830
:101AF000102044F480640861B00607D55FEA0A70DC
:101B000004D528680761284600F0C2F9F00606D51A
:101B100028680069800702D0284600F0BAF9B003AF
:101B200008D55FEAC96005D52968102048602846B5
:101B300000F0B0F9F00307D55FEA097004D5286812
:101B40004760284600F0DAF9300446D55FEA49706C
:101B500040D5F00504D55FEAC87001D044F0010417
:101B6000B00504D55FEA887001D544F00204700521
:101B700004D55FEA487001D544F00404300529D546
:101B800018F0700F26D008F07000402815D006DC41
:101B9000102809D020280AD0302816D10AE0502871
:101BA0000ED0602811D10EE044F008040DE044F09E
:101BB00010040AE044F0200407E044F0400404E08C
:101BC00044F0800401E044F480742868816921F0C5
:101BD00070018161296804204860002C05D0686A82
:101BE000204368622846FFF78FFEBDE8F09F70B57E
:101BF000040003D094F8200010B104E0012070BD6F
:101C0000204600F081F82068016841F00101016080
:101C100000F09AFC0546052604E000F095FC401B08
:101C20000A2811D820684068C007F6D020680168EB
:101C300021F00201016000F087FC05460BE000F096
:101C400083FC401B0A2806D9606A40F400306062B9
:101C500084F82060D2E7206840688007EFD4207EB7
:101C60000128206801683DD021F080010160607E7C
:101C700001282068016838D021F040010160A07E71
:101C800001282068016833D021F020010160E07E46
:101C90000128206801682ED041F010010160207FEA
:101CA00001282068016829D021F008010160607FC7
:101CB00001282068016824D021F004010160D4E9E2
:101CC00002010843D4E90412114308436168491E24
:101CD00008432168C86100206062012084F8200068
:101CE000002070BD41F08001C0E741F04001C5E730
:101CF00041F02001CAE721F01001CFE741F00801CF
:101D0000D4E741F00401D9E7F0B587B004461421C7
:101D10006846FEF7B9FA434B4348DFF804E1196817
:101D2000D4F800C0404A03250226092710300024B9
:101D3000491CF4452DD11960012907D1016841F0F2
:101D400000710160006800F000700590106840F0BC
:101D5000080010601068CDE9005600F00800CDE9D9
:101D6000047069463148CDE9024500F0C9FA002205
:101D70001146132000F056FC132000F045FC002211
:101D80001146142000F04EFC142000F03DFC2848C1
:101D90003FE0DFF8A0E0F44540D1D0F800C04CF0BF
:101DA000806CC0F800C0D0F800C001290CF0806C35
:101DB000CDF814C0196007D1016841F000710160CD
:101DC000006800F000700590106840F0020010609C
:101DD000106802AB00F0020005904FF44050CDE9CE
:101DE000000683E8B0006946134800F089FA002233
:101DF00011463F2000F016FC3F2000F005FC0022B9
:101E00001146402000F00EFC402000F0FDFB084889
:101E100028300068416941F48061416107B0F0BD3C
:101E2000006400400400002030380240000C0240F2
:101E3000400100200068004000040240704700009C
:101E400010B58AB0044607AB6A460021FFF75DFD76
:101E50000B4A0C490C48944202D1009A521E04E0ED
:101E60000A4A94420AD1009A921DD2B20A7002EB39
:101E7000820100EB810007A901F04FFC0AB010BD00
:101E80004001002018000020EC1400206801002010
:101E9000704770477047000070B5044690F8200006
:101EA000012804D0606A40F40020606218E002203B
:101EB00084F820002068016821F00101016000F031
:101EC00043FB05460EE000BF00F03EFB401B0A2826
:101ED00008D9606A40F400306062052084F8200070
:101EE000012070BD20684068C007EDD1606270BD00
:101EF00070477047704770477047704770472DE9CB
:101F0000F0410446876D00F01FFB064694F835004B
:101F10000025022806D08020606584F83450012016
:101F2000BDE8F0812068016821F016010160206899
:101F3000416921F080014161206C08B9A06C20B199
:101F40002068016821F0080101602068016821F023
:101F5000010101600CE000F0F7FA801B052807D9A9
:101F600020206065032084F8350084F83450D7E7DA
:101F700020680068C007EED194F85C103F208840CC
:101F8000B860012084F8350084F834500020C7E799
:101F900090F83510022903D0802141650120704757
:101FA000052180F835100068016821F00101016009
:101FB0000020704770B504002BD094F8350002283B
:101FC00026D02068016821F0010101602068002509
:101FD000056020684560206885602068C5602068CD
:101FE00005612168212048612046FFF739F9E56342
:101FF00025646564A564E564256594F85C203F214B
:1020000091408160656584F8355084F83450002033
:1020100070BD012070BD406D704700002DE9F84390
:1020200004464FF00009CDF8009063484FF4165174
:10203000A56D0068B0FBF1F72E6894F85C100820DD
:1020400000FA01F131420FD021680A6852070BD51E
:102050000A6822F004020A6094F85C108840A860C4
:10206000606D40F00100606594F85C104FF001086D
:1020700008FA01F0304208D021684969090604D500
:10208000A860606D40F00200606594F85C10042068
:102090008840304208D021680968890704D5A860C3
:1020A000606D40F00400606594F85C10102088407A
:1020B000304218D021680968090714D5A860206843
:1020C0000168490304D50068000308D5A16C07E046
:1020D0000168C90503D4016821F008010160216C81
:1020E00009B12046884794F85C102020884030428F
:1020F00031D021680968C9062DD5A86094F835004B
:1021000005282068016806D0490347D50068000308
:102110001DD4616C1CE021F016010160206841694A
:1021200021F080014161206C08B9A06C20B12068C9
:10213000016821F00801016094F85C103F2088409C
:10214000A86084F8358084F83490216D1FE0E16B3D
:1021500009B120468847606D00282BD0606DC0070C
:1021600014D0052084F835002068016821F00101B1
:1021700001600098401C0090B84203D820680068B5
:10218000C007F6D184F8358084F83490E16C0029DA
:1021900010D001B02046BDE8F04308470168C905EA
:1021A000D5D4016821F01001016084F8358084F8ED
:1021B0003490CCE7BDE8F883140000202DE9F0410D
:1021C000044600F0C1F906465CB1022084F83500EF
:1021D000002584F834502068016821F00101016075
:1021E0000DE00120BDE8F08100F0AEF9801B05286C
:1021F00005D920206065032084F83500F2E72068C7
:102200000068C007F0D12268116820480140D4E975
:1022100001031843D4E90336334318436369184371
:10222000A3691843E3691843236A18430843616AA2
:10223000042903D1D4E90B13194308431060206823
:102240004069666A20F0070130460E4301270428E2
:102250000CD1A06A0643E06A40B12046FFF714F8AB
:1022600020B14020606584F83570BAE72068466187
:102270002046FEF7F5FF94F85C203F2191408160F5
:10228000656584F835700020ACE700003F8010F0F1
:102290002DE9F0410446866D90F8340000250128B0
:1022A0000DD0012084F8340094F835700020012FFF
:1022B00007D084F8340002252846BDE8F0810220CA
:1022C000FBE7022784F8357060652046FFF706F8C3
:1022D00094F85C103F208840B0602068016841F0AD
:1022E00016010160206C20B12068016841F00801EE
:1022F00001602068016841F001010160DCE7000035
:102300002DE9F84FDFF8F8A1002201240AF1040BAF
:1023100003254FF00F090BF1040E00BF0B6804FA00
:1023200002F63340B34270D10F7907F00307012F53
:1023300001D0022F16D187684FEA420805FA08FC3F
:1023400027EA0C07D1F80CC00CFA08FC4CEA070C81
:10235000C0F808C04768B7430E79C6F30016964028
:102360003E4346600E79F643B6070AD0C7684FEA87
:10237000420C05FA0CF6B7438E6806FA0CF63E439B
:10238000C6600E7906F00306022E10D1D60800EBC7
:102390008608D8F8206057074FEAD76C09FA0CF77F
:1023A000BE430F6907FA0CF73743C8F82070066878
:1023B0004FEA420C05FA0CF7BE430F7907F003070A
:1023C00007FA0CF7374307604E6816F4403F1CD0FD
:1023D0004C4E376847F480473760366822F0030771
:1023E00006F480460096484E07EB060CDCF80868B9
:1023F00097073F0F09FA07F826EA0806DFF80C816D
:10240000404503D14FF0000841E072E0DFF8008161
:10241000404502D14FF0010839E0DFF8F88040452F
:1024200002D14FF0020832E0DFF8EC80404502D1E3
:102430004FF003082BE0DFF8E480404502D14FF075
:10244000040824E0DFF8D880404502D14FF00508A9
:102450001DE0DFF8D080404502D14FF0060816E0BD
:10246000DFF8C480404502D14FF007080FE0DFF8E5
:10247000BC80404502D14FF0080808E0DFF8B0808A
:10248000404502D14FF0090801E04FF00A0808FA70
:1024900007F848EA0608CCF80888DAF800605746DA
:1024A000D1F804C09E435FEACC3C00D51E433E6099
:1024B000DBF800605F46D1F804C09E435FEA8C3CC5
:1024C00000D51E433E60DEF800607746D1F804C0B8
:1024D0009E435FEACC2C00D51E433E60084F0C376C
:1024E0003E68D1F804C09E435FEA8C2C00D51E43A1
:1024F0003E60521C102AFFF411AFBDE8F88F0000B7
:10250000003C0140443802400030014000000240DD
:102510000004024000080240000C0240001002408B
:102520000014024000180240001C0240002002403B
:10253000002402400069084000D0012070470AB121
:10254000816170470904FBE701488068704700001B
:1025500008000020024881680278114481607047B9
:10256000080000200B4810B5016841F400710160BB
:10257000016841F480610160016841F4807101608B
:10258000032000F06FF80F2000F006F800F024F8A8
:10259000002010BD003C024070B50D4D04464FF4C4
:1025A0007A712878B1FBF0F00A490968B1FBF0F0C4
:1025B00000F00CFB48B9102C07D200222146501E17
:1025C00000F030F800206C6070BD012070BD00008C
:1025D00008000020140000200A4808B5016841F4F2
:1025E00080410160006800F4804000900548001FB1
:1025F000016841F080510160006800F08050009057
:1026000008BD000044380240002809DB00F01F022A
:10261000012191404009800000F1E020C0F8001144
:1026200070470000F0B40E4B1B680C46C3F3022346
:10263000C3F10705042D00D90425191D072901D26E
:10264000002300E0DB1E012606FA05F1491E2140A9
:1026500099409E40761E16403143F0BC02F0B6BF52
:102660000CED00E0064900F0070208684FF6FF0392
:10267000184040EA0220034A1043086070470000F7
:102680000CED00E00000FA052DE9F0470E460500CC
:1026900065D0DFF81481D8F80000F7B200F00F0021
:1026A000B04207D288F80070D8F8000000F00F00A0
:1026B000B04254D128683D4C810712D5400703D55C
:1026C000206840F4E05020602878000703D5206897
:1026D00040F4604020602068A96820F0F0000843C2
:1026E00020602878C0072DD0304968680839012853
:1026F00012D0022813D0032811D0096889070029B5
:102700002DDA216821F0030101432160FFF71CFF4E
:10271000814641F2883A0EE009688903EFE70968CB
:102720008901ECE7FFF710FFA0EB0901514502D941
:102730000320BDE8F0872068696800F00C00B0EB6A
:10274000810FEFD1D8F80010404601F00F01B142DF
:1027500007D90770006800F00F00B04201D00120D7
:10276000E7E72878400705D52068E96820F4E050BD
:10277000084320602878000706D52068296920F4DE
:10278000604040EAC100206000F038F82168084A43
:10279000C1F30311515CC84006490860064800684F
:1027A000FFF7FAFE0020C4E7003C02400838024070
:1027B000CE770008140000200C00002004480549D2
:1027C00000680968044AC1F38221515CC84070471F
:1027D0001400002008380240DE770008044805494C
:1027E00000680968044AC1F34231515CC84070472F
:1027F0001400002008380240DE770008154810B5A4
:10280000006810F00C02144813D01449042A0FD0A9
:10281000082A0ED10F4C241F2268236802F03F02C1
:102820005B0207D52068C0F38810A0FB010106E019
:10283000084610BD2168C1F38811A1FB00010023E7
:10284000FDF7D2FC2168C1F30141491C4900B0FBEE
:10285000F1F010BD083802400024F400001BB7005E
:102860002DE9F84F04006ED02078DFF84C93C007B4
:10287000A9F104054AD009F104000168C1F38101FE
:10288000012908D00068C0F3810002280AD1D9F8D4
:102890000000400206D52868800337D5606800280C
:1028A000E1D033E06068B0F5803F10D0B0F5A02FE4
:1028B000286810D020F480302860286820F4802018
:1028C00028606068A8B1FFF73FFE06460DE0286863
:1028D00040F48030F4E740F480202860F7E700BF40
:1028E000FFF732FE801B642873D828688003F7D571
:1028F0000CE0FFF729FE064605E000BFFFF724FEC7
:10290000801B6428F0D828688003F7D42078DFF88B
:10291000AC8280074FF0000A3ED5A748001D016831
:1029200011F00C0F08D00068C0F3810002280BD111
:10293000D9F80000400207D42868800716D5E0685F
:10294000012800D112E033E1E068B8B10120C8F8F5
:102950000000FFF7F9FD064605E000BFFFF7F4FDB4
:10296000801B0228C0D828688007F7D5286821690D
:1029700020F0F80040EAC10028600DE0C8F800A08F
:10298000FFF7E2FD064604E0FFF7DEFD801B0228AC
:102990001FD828688007F7D42078000722D5864FF3
:1029A00087486169703771B101210160FFF7CCFD83
:1029B000064604E0FFF7C8FD801B022809D83868E6
:1029C0008007F7D50EE0C0F800A0FFF7BDFD064672
:1029D00005E082E0FFF7B8FD801B02287DD838684B
:1029E0008007F7D42078400768D5DFF8CCB10027FE
:1029F0000BF13C0BDBF80000C0000BD4DBF800103F
:102A000041F08051CBF80010DBF80000012700F006
:102A1000805000906B4E3068C00510D4306840F490
:102A200080703060FFF790FD009005E0FFF78CFDAF
:102A30000099401A022850D83068C005F6D55E4E7D
:102A4000A0686C3601280FD00528306810D020F01F
:102A500001003060306820F004003060A068B8B138
:102A6000FFF772FD00900FE0306840F00100F4E7DE
:102A700040F004003060F7E7FFF766FD0099411A67
:102A800041F28830814266D830688007F4D50EE084
:102A9000FFF75AFD009007E0FFF756FD0099411A35
:102AA00041F28830814256D830688007F4D42FB183
:102AB000DBF8001021F08051CBF80010A069C8B3FA
:102AC0003D49091D0968C1F3810102294AD0022844
:102AD000504607D0C8F8600000E03CE0FFF734FD46
:102AE00004463BE04746C8F86000FFF72DFD064668
:102AF00005E000BFFFF728FD801B02282BD82868BF
:102B00008001F7D4D4E907010843A16A2E4A490895
:102B100002EB0141626A41EA8211084394F82C10E9
:102B200040EA0161C9F8001001203866FFF70CFD8A
:102B3000044606E03EE000BFFFF706FD001B02284A
:102B400009D828688001F7D534E000BFFFF7FCFC06
:102B5000001B022802D90320BDE8F88F28688001F5
:102B6000F4D427E00128F7D0D9F80000E26900F496
:102B7000800191421CD1226A00F03F01914217D19D
:102B800047F6C071626A0140B1EB821F10D1A26AA0
:102B90004FF0FF3300F4403103EB5202B1EB024F30
:102BA00006D194F82C1000F07060B0EB016F01D0EA
:102BB0000120D1E70020CFE704380240000047425F
:102BC000800E4742007000400000FFFF10B5401E1D
:102BD000B0F1807F01D3012010BD4FF0E02460618F
:102BE0000F21601702F0F2FC0020A0610720206195
:102BF000002010BD10B5040003D094F83D0010B1C2
:102C000007E0012010BD002084F83C00204600F0C1
:102C10001EF8022084F83D00211D206801F0C8FD47
:102C2000012084F8460084F83E0084F83F0084F8D0
:102C3000400084F8410084F8420084F8430084F89E
:102C4000440084F8450084F83D00002010BD704722
:102C500090F83D10012901D001207047022180F831
:102C60003D100168CA6842F00102CA60006811495B
:102C7000884214D0B0F1804F11D00F4988420ED055
:102C80000E4988420BD00E49884208D00D4988422F
:102C900005D00D49884202D00C49884204D1816890
:102CA00001F00701062903D0016841F0010101602C
:102CB0000020704700000140000400400008004070
:102CC000000C00400004014000400140001800409A
:102CD00070B5044690F83C0000260D4601280FD040
:102CE000012084F83C006AB1042A1DD0082A2FD0A4
:102CF0000C2A3FD00126002084F83C00304670BDED
:102D0000022070BD206801F0C5FD2068816941F096
:102D1000080181612068816921F0040181612068D6
:102D200081692A69114311E0206801F0E3FD206800
:102D3000816941F4006181612068816921F48061C9
:102D40008161206881692A6941EA02218161D2E7B3
:102D5000206801F005FE2068C16941F00801C161E9
:102D60002068C16921F00401C1612068C1692A6934
:102D7000114311E0206801F027FE2068C16941F489
:102D80000061C1612068C16921F48061C16120686E
:102D9000C1692A6941EA0221C161ACE710B50400AA
:102DA00003D094F83D0010B107E0012010BD0020D1
:102DB00084F83C00204600F01EF8022084F83D0014
:102DC000211D206801F0F4FC012084F8460084F8FD
:102DD0003E0084F83F0084F8400084F8410084F805
:102DE000420084F8430084F8440084F8450084F8E5
:102DF0003D00002010BD704710B50446022249B1C5
:102E000004290ED0082913D094F84100012816D0C7
:102E1000012010BD94F83E000128F9D184F83E202D
:102E20000FE094F83F000128F2D184F83F2008E039
:102E300094F840000128EBD184F8402001E084F8A8
:102E400041200122206801F017FD16492068164A2A
:102E5000884201D0904203D1436C43F40043436461
:102E60002068884213D0B0F1804F10D00F498842BB
:102E70000DD00F4988420AD00E49884207D09042AF
:102E800005D00D49884202D00C49884204D181689E
:102E900001F00701062903D0016841F0010101603A
:102EA000002010BD0000014000040140000400406B
:102EB00000080040000C00400040014000180040A5
:102EC000704770B5044620680C3050E8001F21F4AC
:102ED000907140E80012002AF5D12068143050E8C3
:102EE000001F21F0010140E80012002AF5D1206BFB
:102EF000012809D120680C3050E8001F21F0100192
:102F000040E80012002AF5D1206840694FF0000522
:102F1000400615D52068143050E8001F21F040010C
:102F200040E80012002AF5D1A06B48B10565A06BFE
:102F3000FEF7E5FF20B1A06BFFF76DF8202806D063
:102F4000E585202084F83E002563002070BD102018
:102F50002064032070BD10B504460068406994F8F1
:102F60003D10C0F3C010212911D180B12068143068
:102F700050E8001F21F0800140E80012002AF5D13E
:102F8000606B08B1FEF7BBFF204601F03FFF2068F1
:102F9000406994F83E10C0F38010222911D180B10D
:102FA0002068143050E8001F21F0400140E8001272
:102FB000002AF5D1A06B08B1FEF7A1FF204601F071
:102FC000FEFE002010BD10B5040014D0242084F8AB
:102FD0003D002068C16821F40051C160204600F026
:102FE00072F90020206484F83D0084F83E0044F823
:102FF000300F207310BD012010BD7047F8B5016877
:1030000004460868CA684B6910F00F0F4FF00005BE
:1030100059D003F0010602F49077374365D0C10719
:1030200005D0D10503D5216C41F001012164410790
:1030300005D5D90703D0216C41F002012164810735
:1030400005D5D90703D0216C41F0040121640107A3
:1030500007D502F02001314303D0216C41F0080173
:103060002164216C00293AD0800604D5900602D54F
:10307000204601F0D9FE20684069216CC0F3801021
:10308000090700D460B3204601F099FE206840692A
:10309000400621D52068143050E8001F21F040017F
:1030A00040E80012002AF5D1A06BA8B16C49016577
:1030B000A06BFEF76DFF002811D0A06B016D01B071
:1030C000BDE8F040084783060FD593060DD520468E
:1030D000BDE8F84001F0A8BE2046FFF78EFFF8BD1E
:1030E0002046FFF78AFF2564F8BD266B2023012EBA
:1030F00079D1C60677D5D60675D508684868009098
:103100004869400640D5A16B086840680004000C7F
:10311000EAD0A28D8242E7D9E085C869B0F5807F08
:103120002DD020680C3050E8001F21F4807140E859
:103130000012002AF5D12068143050E8001F21F059
:10314000010140E80012002AF5D12068143050E84F
:10315000001F21F0400140E80012002AF5D184F858
:103160003E30256320680C3050E8001F21F010012C
:1031700040E80012002AF5D1A06BFEF7C0FEA08D3A
:10318000E18D401A81B229E0A08DE18D401A81B213
:10319000E08D0028A8D00029A6D020680C3050E887
:1031A000002F22F4907240E80026002EF5D120680E
:1031B000143050E8002F22F0010240E80026002ED3
:1031C000F5D184F83E30256320680C3050E8002F9C
:1031D00022F0100240E80023002BF5D12046FFF733
:1031E0006FFEF8BDFFE705062BD5150629D594F827
:1031F0003D002128F5D1A068B0F5805F01D120699C
:10320000B0B1206A411C2162216800784860E08CDE
:10321000401E0004000CE084E3D12068C16821F066
:103220008001C1602068C16841F04001C160D8E7F9
:10323000206A0088C0F308004860206A801C206271
:10324000E5E74006CDD55006CBD5CA68204622F02A
:103250004002CA6084F83D3000F0EEF8C1E700009B
:103260007D4C000870B5040004D094F83D000025A2
:1032700010B106E0012070BD84F83C50204600F0FB
:1032800023F8242084F83D002068C16821F400510F
:10329000C160204601F028FE2068016921F49041B8
:1032A00001612068416921F02A0141612068C168FB
:1032B00041F40051C1602564202084F83D0084F869
:1032C0003E00002070BD7047704790F83E30202BC4
:1032D0000ED159B152B190F83C30012B08D00123E6
:1032E00080F83C300023036301F084BE0120704766
:1032F00002207047704770472DE9F843044690F864
:103300003D001F4616460D4620284CD1C5B1BEB122
:1033100094F83C00012846D0012084F83C004FF08E
:103320000008C4F84080212084F83D00FFF70CF924
:10333000A6848146E684A068B0F5805F03D004E0EF
:103340000120BDE8F883206928B12E465FF0000512
:1033500084F83C800EE00026FAE78021204601F048
:1033600091FEA0B9AEB116F8010B21684860E08C5F
:10337000401EE084E08C4B464FF00002009700288E
:10338000EBD14FF04001204601F07CFE30B103202C
:10339000D7E735F8020BC0F30800E6E7202084F8F1
:1033A0003D000020CDE70220CBE7000070B50446C9
:1033B00090F83D00202836D191B38AB394F83C00B0
:1033C000012830D0012084F83C002162A284E284EC
:1033D00000252564212084F83D00636B1348D863E1
:1033E000636B13481864636B1248D864606B1346B0
:1033F00005652668606B321DFEF74AFF21686FF095
:103400004000086084F83C502068143050E8001FE9
:1034100041F0800140E80012002AF5D1002070BD83
:10342000FFE70120FBE70220F9E70000734D0008E9
:10343000B54D00088D4C000800680849884201D14C
:1034400004F046B90649884201D104F047B905495C
:10345000884201D104F048B970470000007800406C
:10346000007C0040001401407047FEE72DE9F04168
:103470002DED048B00F01AF900F0F4F802F05CFF77
:1034800000F094F800F076F801F096FE00F0DEFB14
:1034900000F090FA00F0C2F800F086F800F036FC78
:1034A000FDF7EEFD00F0A0FB00F082FDFDF72CFF24
:1034B0009FED2B8ADFED298AF7EE001AB0EE480A5D
:1034C000B0EE681AF0EE400A264802F017F8264CD3
:1034D000002104F1140294ED0B3AD4ED0A2A94ED84
:1034E000082AD4ED091A214892EC030A00F08FF95A
:1034F0001C4E1E4F9FED1E9A012500BFC5EB051007
:1035000006EB8000F7EE001AB0EE681AF0EE480AFB
:10351000B0EE490A01F0F2FF04F1080205EBC50024
:1035200092EC030A07EBC00094ED0B3AD4ED0A2AA3
:1035300094ED082AD4ED091A002100F068F96D1CF9
:10354000042DDBDB084800213030C18081804180C0
:103550000180BDEC048BBDE8F0810000000000009C
:103560000AD7233C5C1600209C0000203C1500205C
:103570009A99993E0A4800B5026887B0002142F046
:10358000020202600068029100F00200059004202F
:10359000CDE9000169460348FEF7B2FE07B000BD61
:1035A000303802400004024003F00AB830B5184831
:1035B00087B00024016841F010010160016801F04A
:1035C00010010591016841F020010160016801F0DE
:1035D00020010591016841F040010160006801256A
:1035E00000F0400005904FF400600090CDE90154D8
:1035F000694608480394FEF783FEA8030090CDE9CE
:103600000154694604480394FEF77AFE07B030BDC2
:103610003038024000100240001402400F4810B53C
:10362000026886B0002142F48072026000680C4C8F
:1036300000F4807005904020CDE900010220029046
:103640000320039069462046FEF75AFE8020009032
:1036500069462046FEF754FE06B010BD30380240E1
:1036600000200240104810B50E490160032141605E
:1036700000214FF400228160C0E903124FF4401290
:1036800042610176012242768176C17601774177E7
:10369000FEF7ADFA002803D0BDE81040FDF7BEBE2E
:1036A00010BD00000064004040010020194808B52A
:1036B000016841F001010160016801F00101009120
:1036C000016841F010010160016801F010010091F2
:1036D000016841F002010160016801F002010091FE
:1036E000016841F008010160016801F008010091E2
:1036F000016841F080010160016801F080010091E2
:10370000016841F020010160006800F02000009095
:1037100008BD000030380240FEE710B5B0F90830AF
:1037200043810A8852BA12B202814C88D31A64BA11
:1037300004808C88B3F5805F64BA44808979817194
:10374000C16801DD491E03E013F5805F01DA491C01
:10375000C16002EB4131016110BD002180F8001A07
:1037600080F8011A80F8021A7047000070B504460C
:1037700090F8020A0D46E8B10F480078D0B194F8ED
:10378000000A0EA204EB00234FF48071284601F0DA
:1037900003FF94F8000A0A21401CB0FBF1F201FB80
:1037A000120084F8000A94F8020A401E84F8020A03
:1037B000012070BD002070BD0801002025730000AD
:1037C00010B5044690F8020A0A2801D3002010BD63
:1037D00094F8010A0B4604EB00200BA24FF4807111
:1037E00001F0DAFE94F8010A0A21401CB0FBF1F264
:1037F00001FB120084F8010A94F8020A401C84F8C4
:10380000020A012010BD000025730000FEE7002819
:1038100007D00170C0ED092A80ED063A021D82EC46
:10382000050A7047B0EE401A9FED5F0A002873D07A
:1038300090ED0F2A80ED102AD0ED0E1AC0ED0F1A70
:1038400080ED071A30EEC11AC0ED080A80ED0E1A9D
:10385000D0ED092AB0EEC13AB4EEE23AF1EE10FA38
:1038600004DCF5EEC02AF1EE10FA7CD10178B9B192
:10387000012902D0022959D093E011EE101A9FEDD0
:103880004B2AB1F18B4F02DD31EE421A06E011EE08
:10389000101A11F16A5F03D931EE021A80ED0E1A87
:1038A00090ED012A71EE611AF5EEC00A22EE012AAE
:1038B00080ED0A2AC0ED0D1AD0ED032A62EEA11A9E
:1038C000F1EE10FAC0ED0C1A27D0D0ED060AF0EE9A
:1038D000C12AF4EEE02AF1EE10FA04D3F5EEC00AA4
:1038E000F1EE10FA19D190ED0B0AD0ED020A00EEBC
:1038F000810A80ED0B0AD0ED040AB4EEE00AF1EE85
:1039000010FA06DCF1EE600AB4EEE00AF1EE10FA0D
:1039100005D2C0ED0B0A02E045E080ED0B0A90ED08
:103920000B0A32EE000A30EE210A25E031EE610A80
:10393000D0ED010AF0EE002A60EE200AC0ED0A0A7E
:1039400090ED020A20EE010A01EEE21A80ED0B0A68
:1039500031EE021A80ED0D1AD0ED031A21EE811A14
:1039600080ED0C1A00E01AE030EE800AD0ED110A6A
:1039700030EE010A30EE200A80ED110AD0ED050A82
:10398000B4EEE00AF1EE10FA06DCF1EE600AB4EEF5
:10399000E00AF1EE10FA04D2C0ED110A01E080ED68
:1039A000110A90ED110A70470000000000F8FF4571
:1039B000704700000C4800B5026887B0002142F44F
:1039C00080720260006800F4807005900420CDE9E8
:1039D0000001012002900220039069460348FEF78F
:1039E0008FFC07B000BD00003038024000200240CC
:1039F00010B504210248FEF79DFD0249087010BD74
:103A0000002002402100002010B5064C00220421B5
:103A10002046FEF794FD20460122BDE81040082113
:103A2000FEF78DBD0000024010B5064C01220421B6
:103A30002046FEF784FD20460022BDE81040082104
:103A4000FEF77DBD0000024010B5064C00220121AA
:103A50002046FEF774FD20460122BDE810400221F9
:103A6000FEF76DBD0000024010B50B4C0022012195
:103A70002046FEF764FD002202212046FEF75FFD8E
:103A8000002204212046FEF75AFD20460022BDE810
:103A900010400821FEF753BD0000024010B5064C4F
:103AA000012211462046FEF74AFD20460022BDE8CD
:103AB00010400221FEF743BD0000024070B58AB0FD
:103AC00004466846FDF7CCFD242269463848FCF7D9
:103AD000C2FB374D364E183DB3EE040AB5F904006B
:103AE00068B100EE900A0121F8EEE00A20EE800AAB
:103AF000BDEEC00A10EE100A00F01CFB26E0B5F97E
:103B0000020088B300EE900A2A48F8EEE00A20EEA0
:103B1000800A80ED000AB179012904D1B5EEC00A0E
:103B2000F1EE10FA07D37179012908D1B5EEC00A78
:103B3000F1EE10FA03DD9FED200A80ED000ABDEEE4
:103B4000C00A10EE100A00BF00F006FBA87A012898
:103B500010D0022829D1022C22D0032C25D10AB062
:103B6000BDE87040FFF79ABF0221002000F0E2FAA2
:103B70000020E9E7022C09D0032C16D1F07A0128A5
:103B800009D00AB0BDE87040FFF75EBF0AB0BDE8DB
:103B90007040FFF749BF0AB0BDE87040FFF764BF4F
:103BA0000AB0BDE87040FFF72FBF0AB070BD00003B
:103BB00064170020DC0000200000000016220149EC
:103BC000FCF749BB941800200248807A002800D1F5
:103BD00003207047941800200248C07A002800D1C2
:103BE000012070479418002002F04CBA10B50E481E
:103BF00002F07AFC0C4CA41E606040B1618831B1C7
:103C00000A4900F0F9F802F0CBFB00200AE0208816
:103C1000B0F5FA6F05D9BDE8104016210348FCF74E
:103C200033BB401C208010BDEE0000209418002003
:103C300000B587B06846FFF7C1FF16226946024803
:103C4000FCF709FB07B000BD4C170020FDF784B955
:103C500010B50E48FFF735F90C4C202084F83E00D3
:103C60002046FFF731FB4FF4807204F58271204645
:103C7000FFF72BFB04F1A401012081F83500206837
:103C8000C16841F01001C16010BD0000900C00201F
:103C90000421014800F002B800010020054A5378D1
:103CA000002B06D0002353708AB201460248FFF76A
:103CB0007DBB704750000020900C002010B5124CC6
:103CC000206903F02BF82070012803D1FFF7C0FF13
:103CD0000120607002F028FC60B10B48001D02F06A
:103CE00013FC206130B1A18821B1FDF799FB608000
:103CF00002F064FBA068401CA060C82803D1FFF755
:103D0000C7FF0020A06010BDF400002030B51448AB
:103D100087B0016841F008010160016801F0080105
:103D20000591016841F0800101600068012500F003
:103D3000800005904FF4404000900224CDE90154EA
:103D4000694608480394FEF7DBFAE0020090CDE9EB
:103D50000154694604480394FEF7D2FA07B030BD17
:103D600030380240000C0240001C02402DE9F041B6
:103D70004FF40041194CCD10194E4F10D8B1012805
:103D800024D0022811D0032826D100222046FEF795
:103D9000D6FB012229463046FEF7D1FB01223946E7
:103DA0002046BDE8F041FEF7CABB01222046FEF7DF
:103DB000C6FB002204E000222046FEF7C0FB0122E1
:103DC00029463046FEF7BBFB0022E8E700222046EA
:103DD000FEF7B5FB0022DDE7BDE8F081000C0240F4
:103DE000001C0240034800218171C171C1724172FF
:103DF0008172704758000020002854D0002952D00A
:103E00000278437842EA0322C2F30A020A80427827
:103E10008378D20842EA4312C2F30A024A808278C7
:103E2000C378920942EA8302037942EA8322C2F309
:103E30000A028A8002794379520842EAC312C2F325
:103E40000A02CA804279C2F301128A724279920947
:103E5000CA728279C37942EA03228A81027A437A5A
:103E600042EA0322CA81827AC37A42EA03220A82A0
:103E7000027B8A74427BCA74827BC37B42EA032240
:103E80008A82027C407C42EA0020C0F30A0008815A
:103E90005FF0000001EB4003401C1A880528A2F5E2
:103EA00080621A80F6DB7047704700000A480021E4
:103EB000012201808170C1700171417181710172B3
:103EC0008172C1720173026101754275C27582759A
:103ED000632180F8201070479814002006480022C3
:103EE0000121C27001610273017541758175C1754F
:103EF000632180F8201070479814002070B501F0FD
:103F0000F7F9224C22480025217911B101210172D3
:103F10002DE0017A01292AD0FFF7D0FEFDF78AFBB8
:103F200084F80400FFF764FD00F060F8FDF70EF977
:103F3000FFF75CFE2580FDF783FBA070207910B1B0
:103F4000632820D0E071FDF797FB6071FDF7A6FBB9
:103F5000A071FDF72DF9A072FDF734F9E072FDF7BD
:103F600079FB2076FDF782FB84ED070A70BD257191
:103F7000818A40F2DC52914202D2491C8182D1E70F
:103F800085820572CEE7E571DDE700009814002018
:103F900058000020002809D00021017041704A1EFD
:103FA000426001720174017680F8271070470000AA
:103FB00010B500F05BFD0448FFF7ECFF0248BDE8D8
:103FC00010403030FFF7C9BBAC1C0020054A5378C5
:103FD000002B06D0002353700A4601460248FFF723
:103FE000E5B9704754000020940F00202DE9F843F4
:103FF0000025ADF80050684602F09CFA8046FDF7B7
:10400000D7F82C4C4FF47A776070A07801280AD149
:10401000A088401C80B2B0FBF7F1A08007FB110024
:1040200008B9A570A5802089BDF800208118FF2956
:1040300012D8214E41463044FCF70DF92089BDF8D5
:10404000001008440004000C208112D0311811F82F
:10405000011C7D2905D00CE0258102F0B7F9BDE8EF
:10406000F8833554144802F085FDA070258102F0D4
:10407000ADF96089401C608102F06CFA20706189A2
:10408000B1FBF7F207FB12110029E8D10028E6D0B6
:104090000A4890F8020A0028E1D009490748FFF7CA
:1040A00065FB0748FCF7FBF881B20548FFF78EFF78
:1040B000D5E7000008010020AC1B0020DC1C00201C
:1040C000AC1A00200948418809B1022009E00088A3
:1040D00008B1002005E0054830380079012802D0F9
:1040E0000120FFF743BE0320FBE70000CC000020C7
:1040F000F8B50E4CDDE9066521600021A160E160A4
:10410000082121610A49140A0C704A701A0A8A703F
:10411000CB70320A0A714E712A0A8A71CD710A4631
:104120006B460249FDF7FCFAF8BD00009001002043
:1041300019000020064A1369064A5B1C02D00129B7
:1041400000D04042508080B24042908070470000D2
:10415000981400208000002001490880704700006A
:10416000800000200248002101704170704700006B
:10417000760000202DE9F84FFE4EFF4CA6F11E02FE
:1041800096F801C0506A917A00F1010E106A012779
:10419000002594F81590E279237E94ED070A4FF0FC
:1041A000040A06F10A0BBCF1080F34D2DFE80CF068
:1041B00004FDFCFB6AFAF9F8DFF8C0C3DFF8B4B31A
:1041C000B0FBFCF80CFB180CACF51C50ABF11E0B53
:1041D000103807D1A07D012804D100914946E8A0FC
:1041E00002F0A2FDDBF820005A46401CCBF820006C
:1041F000207E1E2802D2207B01280ED0A07D88B10F
:10420000207B012807D1508A4DF2D861884232D2F2
:10421000401CABF81200BDE8F88FCBF82050A77512
:10422000E7752BE0D4492431486810B9E07D0128B6
:10423000F1D0087802F094F918B9487802F090F9B2
:1042400080B1156286F801A03570657594F820007C
:1042500029460028DFD1907A009094ED070A237E4A
:10426000E279FFE1907A009094ED070A237EE279EB
:10427000617DC5A0F7E15582CBF8205086F801A0FA
:104280003570CDE142F2107CB0FBFCF8DFF8E4B20F
:104290000CFB1800ABF11E0BA8B9207B012805D040
:1042A00094F8200030B1012808D00CE00091494674
:1042B000B7A006E000914946B8A002E00091494647
:1042C000B9A002F031FDDBF82000D846401CCBF845
:1042D0002000207B012805D094F8200020B101287F
:1042E00006D009E0122006E0A3482430007802E05E
:1042F000A14824304078207598F8090001280FD192
:10430000E079217D88420BD1B8F81C0043F2B061FE
:10431000401C80B2A8F81C00884201D9A8F81C50A3
:10432000E279217D8A4208D0104602F081F80146E8
:104330002061207D02F0CEF82072E179207D81425B
:1043400009D102214FF4FA70FFF7F4FE88F80970E2
:10435000A07801282AD02088224600287FF45BAF6D
:10436000307805282DD0D179137A4FF47A609942AC
:1043700002D098F806303BB388F80670B8F81A20D7
:1043800041F27C539A4234D9122932D0092930D0D3
:1043900001292ED00A292CD002214FF4FA6024E002
:1043A000D6E06DE02DE0A8E098E05FE1022100207A
:1043B000FFF7C0FEA8F81A50A8F81C50052070702E
:1043C00041E00221322010E02269012A04D00129B3
:1043D0000AD00A2904D107E0092905D0122903D0FF
:1043E000022141F2883000E00221BDE8F84FFFF7DA
:1043F000A1BE98F809100029B0D1521CA8F81A20C3
:10440000F2E75C4F1E3F388BB0F5FA6F35D93D832C
:10441000A078012829D1207D824226D102210020C6
:10442000FFF788FE207B012810D00620707065758C
:10443000B87A009094ED070A237EE27929465DA0C0
:1044400002F072FC3D6286F800A0E4E6072070707E
:10445000B87A009094ED070A237EE279617D55A039
:1044600002F062FC3D62FD82EDE72069404220617E
:104470000520307086F801A0CDE6401C3883CAE6DE
:1044800002210020FFF756FE3A4F1E3FF87901281F
:1044900008D0022070700620307041F28830ABF8EE
:1044A000000019E094F8200010B1012803D004E0C6
:1044B000FFF7BAFA01E0FFF7A7FA388A401C80B28A
:1044C0003882B0F5FA5FC0D93C48ABF80000032051
:1044D0007070062030703D827D629CE625481E3853
:1044E000C0F824E061790129AFD1ABF80050062172
:1044F000717002213170C7718DE61E4A1E3AC2F8F2
:1045000024E0A0790128A0D1ABF8005075700320F9
:10451000307055826775FFF765FC94F8200060B134
:10452000012892D1A775D770907A009094ED070A70
:10453000237EE279617D22A095E0E775D570907ABF
:10454000009094ED070A237EE279617D1EA08AE047
:10455000DFF82080401CA8F11E080221C8F82000C6
:104560000020FFF7E7FD0548D8F82010B1FBF0F276
:104570002EE0000076000020981400208038010012
:1045800066726565000000004661696C000000000D
:104590006D6F76655F636861726765006D6F7665E4
:1045A0005F7069636B0000006D6F76655F706C61B2
:1045B00063650000617272697665000078ECFFFF48
:1045C000706C6163650000007069636B000000003F
:1045D00000FB121064280AD198F80A00009094EDAC
:1045E000070A237EE279617D37A002F09DFB207EE1
:1045F00065280BD3FFF752FAE07A002891D1757045
:1046000007203070FFF7EEFB677504E6E07A0128BB
:1046100008D0FFF719FA88F80A70207E1E2804D205
:104620006575F8E5FFF720FAF7E76775A07D0028C4
:10463000EBD1FFF733FAE07A0028E6D1C8F8205032
:1046400086F801A0072030706575A575424688F888
:104650000350FFF7C7FB907A009094ED070A237E82
:10466000E279617D1AA002F05FFBD4E5022100200F
:10467000FFF760FDA846ABF80050174D1749286AB0
:10468000401CB0FBF1F2286201FB120070B9A87A5D
:10469000009095F80BC005F1300094ED070A237ED9
:1046A000E279617D50F82C0002F03EFBE87A0128A7
:1046B00001D1208808B17770ADE585F80B8030789E
:1046C00070703770A7E5000063686172676500006D
:1046D000537563636573730058000020C027090099
:1046E000FDF738BF30B593B030216846FBF7CCFDFD
:1046F00014210CA8FBF7C8FD1D480025016841F0F6
:1047000080510160006800F08050119019480168E4
:1047100041F4404101600068022400F440401190DF
:1047200001200090000401908001CDE906400620A0
:104730000890A820CDE9090404200B906846FEF7F4
:104740008FF808B172B6FEE70CA90F2081E831009E
:104750004FF4A0500F904FF48050109005210CA8FA
:10476000FDF792FF002801D072B6FEE713B030BD0E
:1047700040380240007000400248016841F4700176
:104780000160704788ED00E007480068C168C943D0
:10479000C90707D1891E016104480168491C0160ED
:1047A00000F0EABD70470000380200200000002041
:1047B000F0B50268254C264D264E274F274B4FF06B
:1047C000804CA04209D0604507D0A84205D0B04235
:1047D00003D0B84201D0984204D122F0700E4A684A
:1047E00042EA0E02A0421BD0604519D0A84217D061
:1047F000B04215D0B84213D0984211D0184DA842FB
:104800000ED0184DA8420BD0174DA84208D0174D16
:10481000A84205D0164DA84202D0164DA84203D199
:1048200022F44075CA682A434D6922F080022A4367
:1048300002608A68C2620A688262A04201D098421D
:1048400001D10969016301214161F0BD000001400E
:104850000004004000080040000C0040000401403B
:104860000040014000440140004801400018004061
:10487000001C00400020004010B501F01F03012182
:10488000046A99408C430462016A9A4011430162B0
:1048900010BD0000F0B5026A22F001020262036A54
:1048A00042688469124E24F073050C682C4323F08F
:1048B00002058B682B430D4DA84201D0B04205D1B3
:1048C00023F00807CB683B4323F00403A84201D040
:1048D000B04205D14D6922F4407215438A692A43DA
:1048E00042608461496841630362F0BD0000014099
:1048F00000040140F0B5026A22F010020262026A6E
:10490000436884690D6824F4E64444EA05248D680C
:1049100022F0200242EA05120F4D104EA84201D0AB
:10492000B04206D1CF6822F0800242EA071222F09C
:104930004002A84201D0B04207D14D6923F4406340
:1049400043EA85038D6943EA8503436084614968CE
:1049500081630262F0BD00000000014000040140DC
:10496000F0B5026A22F480720262026A4368C46986
:1049700022F4007224F073050C68124E2C438D68EB
:1049800042EA05220E4DA84201D0B04206D1CF68BE
:1049900022F4006242EA072222F48062A84201D097
:1049A000B04207D14D6923F4405343EA05138D69A2
:1049B00043EA05134360C4614968C1630262F0BD04
:1049C000000001400004014030B5026A22F4805228
:1049D0000262046A4268C3690D6823F4E64343EA4D
:1049E00005238D6824F4005444EA0534084DA84298
:1049F00002D0084DA84204D14D6922F4804242EA17
:104A000085124260C36149680164046230BD0000E0
:104A10000000014000040140124808B5026800216E
:104A200042F00102026000684FF0804200F0010095
:104A300000900D48026041F26702C0E9012109229D
:104A4000C0E903214161FEF7D5F80748FEF700F9F8
:104A5000012200211C20FDF7E5FDBDE808401C20D7
:104A6000FDF7D2BD40380240380200202DE9F04168
:104A70004C4886B00024016841F0100101600168D3
:104A800001F010010591474910310A6842F0804257
:104A90000A60096801F080410591016841F4001144
:104AA00001600068082500F4001005904FF4807044
:104AB000009002200190012002900320CDE903051F
:104AC000394E69463046FDF71BFC80200090694650
:104AD00004953046FDF714FC354D344828604FF4FA
:104AE0001650C5E901040C20EC60C5E90440AC6136
:104AF0002846EC61FEF7B6FB05F144062D48306010
:104B00004FF02067C6E901744FF48068C6E9034896
:104B10007461B461F461346230467462FDF74EFB37
:104B200008B1FCF77BFCAE63B563214E2148A43687
:104B30003038E6E802074020474691C61C4846F850
:104B40001449A430B461F46134627462FDF736FB39
:104B500008B1FCF763FC6E63002211465220B56376
:104B6000FDF760FD5220FDF74FFD002201210C20D2
:104B7000FDF758FD0C20FDF747FD002201210E2016
:104B8000FDF750FD0E20FDF73FFD3A460A49084863
:104B9000FEF79BFB2868C16841F01001C16006B0B8
:104BA000BDE8F0813038024000100240007800403B
:104BB000940F00205860024098100020104810B553
:104BC00000680168C90615D56FF0100101600C4836
:104BD000443000684068C0F580610A484180012186
:104BE00001700748FEF7B7F94FF4806206490448A0
:104BF000FEF76BFBBDE810400148FEF7FFB900006F
:104C0000940F0020540000209810002070B5174821
:104C100000680168C90624D56FF0100101601348CF
:104C2000A43000684068124CC0F58070608001209C
:104C300020700E48FEF78FF94FF4807529460D4815
:104C4000FBF722FB62880C490A48D21CFBF703FBE6
:104C500029460948FBF718FB2A4607490348FEF78F
:104C600034FBBDE870400148FEF7C8B9900C002045
:104C700050000020940E0020940D002010B5806B91
:104C80000021C185C184FEF7B8F910BD70B5846BF1
:104C90002068406994F83D10C0F3C0100025212918
:104CA00004D118B1E584204600F0B0F820684069CE
:104CB00094F83E10C0F38010222904D118B1E58584
:104CC000204600F07CF8206C40F010002064204664
:104CD000FEF793F970BD10B50146806B096809684D
:104CE000C9052FD40021C18501680C3151E8002F7E
:104CF00022F4807241E80023002BF5D101681431C1
:104D000051E8002F22F0010241E80023002BF5D1E9
:104D10000168143151E8002F22F0400241E80023DD
:104D2000002BF5D1202180F83E10016B012909D11B
:104D300001680C3151E8002F22F0100241E80023F5
:104D4000002BF5D1016B012902D0FEF7D3FA10BD7B
:104D5000818DFEF7B5F810BD10B5806B016B012990
:104D600002D0FEF7C8FA10BD818D4908FEF7A8F8F9
:104D700010BD10B50146806B09680968C90516D4D5
:104D80000021C1840168143151E8002F22F0800213
:104D900041E80023002BF5D101680C3151E8002FC8
:104DA00042F0400241E80023002BF5D110BDFEF790
:104DB00043FB10BD10B5806BFEF756FB10BD0168BC
:104DC0000C3151E8002F22F4907241E80023002BAF
:104DD000F5D10168143151E8002F22F0010241E8B9
:104DE0000023002BF5D1016B012909D101680C3199
:104DF00051E8002F22F0100241E80023002BF5D1EA
:104E0000202180F83E1000210163704701680C31B9
:104E100051E8002F22F0C00241E80023002BF5D119
:104E2000202180F83D10704708B590F83E102229E7
:104E300001D0022008BD82684FF480539A4201D10C
:104E4000016921B1816A9A421BD04AB10AE0026825
:104E5000816A5268C2F308020A80816A891C08E0EC
:104E6000026972B10268526802F07F020A70816AB8
:104E7000491C8162C18D491E0904090CC18503D0FA
:104E800019E002685268F1E70168CA6822F020025E
:104E9000CA600168CA6822F48072CA6001684A69FF
:104EA00022F001024A61202180F83E10016B0129A5
:104EB00003D0FEF71FFA002008BD0021016301683E
:104EC0000C3151E8002F22F0100241E80023002BA2
:104ED000F5D101680A68D20602D50A6849680091CE
:104EE000818DFDF7EDFFE6E770B5044600680169C6
:104EF000E26821F44051114301612169A068E2692F
:104F000008436169114308432168CA6849F20C6388
:104F10009A430243CA6020684169A26921F4407142
:104F20001143416131492068884202D030498842AA
:104F300002D1FDF753FC01E0FDF740FCE2690023DC
:104F4000192164253226B2F5004F626828D0A0FBF3
:104F50000101930F9200FBF747F90146B0FBF5F012
:104F60006FF01802504301EB800006EB0010B0FB1D
:104F7000F5F000F0F002B1FBF5F002EB0012B1FB2E
:104F8000F5F06FF01803584301EB800006EB0010BA
:104F9000B0FBF5F000F00F0021681044886070BD90
:104FA000A0FB010192185B41FBF71EF90146B0FB23
:104FB000F5F00201B1FBF5F06FF01803584301EB77
:104FC000800006EBC000B0FBF5F000F0F80002EB4B
:104FD0004002B1FBF5F0584301EB800006EBC00046
:104FE000B0FBF5F000F00700D6E70000001001402C
:104FF0000014014038B581628285002513460446BD
:105000000564222084F83E00A26B1B48D063A26B8B
:105010001A481064A26B1A48D064A06B0A46056552
:105020002168A06B091DFDF733F92068016840680D
:10503000009084F83C5020680C3050E8001F41F488
:10504000807140E80012002AF5D12068143050E841
:10505000001F41F0010140E80012002AF5D120684C
:10506000143050E8001F41F0400140E80012002ACF
:10507000F5D1002038BD0000D74C0008594D00087C
:105080008D4C00082DE9F041984617460E4604461F
:10509000069D27E0681C25D02DB1FDF755FAA0EB41
:1050A0000800A8421ED920680C3050E8001F21F4E7
:1050B000D07140E80012002AF5D12068143050E881
:1050C000001F21F0010140E80012002AF5D1202044
:1050D00084F83D0084F83E00002084F83C00032062
:1050E000BDE8F0812068006836EA000004D00020A6
:1050F000B842CFD00020F3E70120F9E7104808B507
:1051000000680168C9061AD50168406800900C481B
:10511000443000684068C0F124010A484180418859
:10512000122901D1012101700548FDF714FF04493E
:105130002422BDE8084024390148FEF7C6B808BD5E
:10514000E80200204800002070B517480068016898
:10515000C90624D56FF0100101601348A43000681F
:105160004068124CC0F580606080012020700E48BD
:10517000FDF7F1FE4FF4806529460D48FBF784F8F2
:1051800062880C490A48D21CFBF765F82946094891
:10519000FBF77AF82A4607490348FEF796F8BDE878
:1051A00070400148FDF72ABF8C0300204C0000200E
:1051B00090080020900400202DE9F04346488DB06F
:1051C0000024016841F008010160016801F0080154
:1051D0000C91016841F080010160006800F08000DE
:1051E0000C903D481030016841F0040101600168F5
:1051F00001F004010C91016841F0080101600068B0
:10520000022500F008000C904FF40050CDE9000595
:10521000324ECDE90245694630460495FDF770F8F7
:10522000E8028DE83100694630460395FDF768F8DD
:105230006802CDE900052A4ECDE9024569463046AF
:105240000495FDF75DF8A8028DE831006946304607
:105250000395FDF755F82448224953260160C0E91B
:10526000016440F2E739C0E903944461FDF7C2FCF0
:105270004FF4FA78CDE9068560271B480597099415
:10528000FDF78CFD042205A91748FDF721FD1648FE
:10529000164948300160C0E90164C0E903944461E3
:1052A000FDF7A8FC1048CDE906854830059709941C
:1052B000FDF774FD0C48002205A94830FDF708FDF4
:1052C00004210948FDF798FD074800214830FDF703
:1052D00093FD0DB0BDE8F08330380240000C024071
:1052E000001C024000080040A8010020000C004003
:1052F00070B54FF400611D48FDF71CF9012600252B
:105300001B4C012801D040B10CE0A08808B9A68050
:10531000E580E088401CE08004E0A08810B1A58012
:10532000E088608060884FF42A014843000C2080A8
:105330004FF480510F48FDF7FDF8012801D040B12E
:105340000CE0A08908B9A681E581E089401CE081D4
:1053500004E0A08910B1A581E089608160894FF4E3
:105360002A014843000C208170BD0000001C02404F
:1053700022000020000C02402DE9FC47FEF7BEFD94
:10538000FEF72AFC444C2070FEF71EFCA070FBF7D1
:1053900019FF20712078012804D002281CD003288E
:1053A0001AD02AE0607801280AD001206070FBF74B
:1053B000BBFF02210020FEF7BDFE0020FEF7CCFE61
:1053C000E178A078814202D0E070FBF7ADFFFBF7F7
:1053D000B9FFFEF7CFFE10E06078022808D0022166
:1053E0000020FEF7A7FE0020FEF7B6FE0220607048
:1053F000FEF71EFC2078FEF761FB27483030FCF7F3
:1054000011F9DFF89490254E09F13009A6F5B87529
:10541000002409F1080805F1500A00BFC4EB04108C
:1054200006EB80010F4639F9140000F089F8384680
:1054300000F03AF800EE100A04EB840728F8140094
:1054400035F92700F8EEC00A00EE100A04EBC4019B
:105450000AEBC100B8EEC00AFEF7E4F9BDEEC00ADF
:1054600005EB8701641C10EE100A042C8880D5DB44
:10547000B5F94010B5F92C00CDE90001B5F91830A7
:10548000B5F904204FF400710548FEF731FEBDE880
:10549000FC47FEF717BE00009C0000205C160020B1
:1054A00040010020FEE7000090ED0E0A104910EECA
:1054B000100A884202DD9FED0F0A06E010EE100A86
:1054C000B0F1474F01D99FED0C0AB5EEC00AF1EEDD
:1054D00010FA02DBF6EE000A01E0FEEE000A30EE02
:1054E000800ABDEEC00A10EE100A00B2704700003C
:1054F00000FEFF4600FEFF46000000C710B5044650
:105500002DED048BB0EE618AB0EE609AF0EE418A28
:10551000F0EE480AFCF742F8F0EE480AB0EE490A0D
:1055200004F11400FCF73AF8F0EE480AB0EE680A0D
:10553000BDEC048B04F12800BDE81040FCF72EB848
:1055400010B50C46FCF742F894ED040A04F114017E
:10555000BDEEC00A10EE100A00B2FCF737F894ED69
:10556000090A04F12801BDE81040BDEEC00A10EEA2
:10557000100A00B2FCF72AB80FB4054B10B503A906
:10558000044A029800F076F910BC5DF814FB0000A4
:10559000ED630008340100200FB47CB50C0009ADA8
:1055A00001D0611E00E00021CDE90001064B6A46F2
:1055B0002946089800F05EF9002C02D0009A0021DC
:1055C00011707CBC5DF814FB7B5F00080907090EB5
:1055D000002804DB00F1E02080F80014704700F0A0
:1055E0000F0000F1E02080F8141D704730B528B19D
:1055F000144C031F002021680A4605E0084630BD10
:105600009A4203D810465268002AF9D1002800D0E7
:1056100041680BD00468A3EB0005A54204D11B68C8
:105620001C440346046002E0436000E023603AB19A
:105630001C68D51AA54203D115682C441C60526819
:105640005A6030BD3801002000B583B09FED060BD5
:105650000A4601468DED000B6846FBF7FCF99DED0F
:10566000000B03B000BD00000000000000000000BF
:105670002DE9F04782460F4C10480D4E0E4F001B8F
:105680004FF0000820F007054FF0010900221146F5
:10569000504600F06DFF002802D1306810B10020A4
:1056A000BDE8F0873C60C4E90058C6F80090EDE71B
:1056B0003C010020E426002038010020E0350020D5
:1056C00002E008C8121F08C1002AFAD170477047CB
:1056D000002001E001C1121F002AFBD17047000029
:1056E0002DE9FF5F82B00021DDE90430020DDDF815
:1056F00040B0034318D044F61050A2F2FF324243A8
:105700001514119801281FD0A5EB0B00401C5FEA6F
:10571000000A4FF000064E4FDFF83891B046504671
:1057200015D5CAF1000413E0119801244AA30128F9
:1057300001D16FEA0B010298119AC0E90031C0E96A
:10574000024206B0BDE8F09FCBF10000DFE704465F
:105750000021404A491842EB0450CDE9001012E004
:10576000E00707D032463B4640464946FBF71BF868
:105770008046894632463B4610461946FBF713F8E9
:1057800006460F466410002CEAD1DDE90401DDE98C
:105790000023BAF1000F06DAFBF705F842464B4644
:1057A000FBF701F805E0FBF7E6F942464B46FBF74D
:1057B000E2F904460E460022284BFBF7B1F803D865
:1057C0004FF0FF30014607E00022254B20463146CE
:1057D000FAF742FFFBF74AFA102409E0002C0ADB33
:1057E0000A220023FAF700FD039B30321A55641E8B
:1057F00050EA0102F2D1641C039AC4F1110314446B
:10580000119A012A03D0012208430DD10AE008436E
:1058100004D000204FF0110B119072E7A3EB0B05A1
:105820006D1E0DE05B4504DD4FF0000205F1010542
:1058300004E003DA4FF00002A5F10105002AECD0E4
:1058400002981199C0E90231C0E9004579E70000EA
:10585000000014400000F03F300000000000F04362
:105860000000E03F30380A2801D2012070470020B4
:10587000704700002DE9FF4F95B09A4688460646CE
:105880000025EEE1252877D100242746F94A012199
:10589000039400E0044316F8013F203B01FA03F0B3
:1058A0001042F7D130782A2811D06FF02F033078CA
:1058B000A0F13002092A16D8039A44F0020402EB40
:1058C000820203EB42021044761C0390EFE758F883
:1058D000042B0392002A03DA504244F4005403904C
:1058E00044F00204761C30782E2816D116F8010FE9
:1058F00044F004042A280DD06FF02F023078A0F174
:105900003003092B09D807EB870302EB4303C718C1
:10591000761CF3E758F8047B761C30786C280FD09F
:1059200006DC4C2817D068280DD06A2814D104E072
:10593000742810D07A280FD10DE044F400140AE046
:1059400044F4801401E044F440147278824202D19D
:1059500004F58014761C761C307866280BD013DC96
:10596000582877D009DC002875D04528F6D046287D
:10597000F4D047281AD193E118E0632835D0642881
:1059800079D0652812D18BE1702873D008DC6728A4
:10599000F1D069286FD06E280DD06F2806D1ACE009
:1059A00073282CD0752874D0782853D05246179974
:1059B00090476D1C54E1C4F30250022809D003281B
:1059C0000DD0D8F8001004280DD00D6008F104089F
:1059D00046E1D8F80010EA17C1E90052F6E7D8F816
:1059E00000100D80F2E70D70F0E718F8041B8DF839
:1059F000001000208DF80100EB46012003E058F86C
:105A000004BB4FF0FF3061074FF0000102D40DE0FE
:105A100009F101018946B9420FDA8145F8DB1BF82B
:105A200009100029F4D108E009F1010189468142F9
:105A3000FADB1BF809100029F6D103985346A0EBB6
:105A4000090721463846179A00F080FA284400EBEF
:105A5000090507E044E008E10DE01BF8010B5246A0
:105A600017999047B9F10109F7D2534621463846B4
:105A7000179AF2E039E00A21C4F302524FF0000B0A
:105A80000091022A06D058F8040BC117032A09D046
:105A90000AE023E008F1070020F00702F2E8020123
:105AA000904605E000B2C117042A01D140B2C117E7
:105AB000002906DA0A460021404261EB02012D224C
:105AC00002E0220504D52B228DF80420012203E0F8
:105AD000E20701D02022F7E7914657E00A2100E0D3
